:020000040800F2
:10000000004E002031010008590100085D0400087D
:1000100000000000000000000000000000000000E0
:100020000000000000000000000000005D0100086A
:1000300000000000000000005F01000861010008EE
:100040006501000867010008690100086B010008EC
:100050006D0100086F01000895040008A104000864
:10006000AD040008B9040008C50400087B010008BD
:100070007D0100087F01000881010008830100085C
:100080008501000887010008890100088B0100082C
:100090008D0100088F01000891010008D1040008BB
:1000A0009501000897010008990100089B010008CC
:1000B0009D0100089F010008A1010008A30100089C
:1000C000A5010008A7010008A9010008A50B000868
:1000D000310C0008AF010008B1010008B3010008AD
:1000E000E9040008B7010008B9010008BB010008D5
:1000F000BD010008BF010008C1010008C3010008DC
:10010000C5010008C7010008C9010008CB010008AB
:10011000CD010008CF010008D1010008D30100087B
:10012000D5010008D7010008D9010008DB0100084B
:10013000054820F0070085460448804704480549E3
:10014000016000F04BB8000000500020F5040008EA
:1001500008ED00E000000008FEE7FEE7FEE7FEE72E
:10016000FEE7FEE7FEE7FEE7FEE7FEE7FEE7FEE767
:10017000FEE7FEE7FEE7FEE7FEE7FEE7FEE7FEE757
:10018000FEE7FEE7FEE7FEE7FEE7FEE7FEE7FEE747
:10019000FEE7FEE7FEE7FEE7FEE7FEE7FEE7FEE737
:1001A000FEE7FEE7FEE7FEE7FEE7FEE7FEE7FEE727
:1001B000FEE7FEE7FEE7FEE7FEE7FEE7FEE7FEE717
:1001C000FEE7FEE7FEE7FEE7FEE7FEE7FEE7FEE707
:1001D000FEE7FEE7FEE7FEE7FEE7FEE735493648C5
:1001E0000A1A02D0072291438D46344934480A1A2C
:1001F00006D00722914381F30988022282F31488F2
:1002000030483149314A00F043F831483149324AE7
:1002100000F03EF831483249324A00F039F83248AD
:100220003249334A00F034F832483349334A00F057
:100230002FF833483349344A00F02AF83348344918
:10024000344A00F025F834483449002200F02BF8F5
:1002500033483449002200F026F833483349091A5C
:10026000082903DB00220260043001601F48204996
:10027000884205D00268043003B4904703BCF7E716
:1002800000208646EC4600200021294A9047FEE7E0
:10029000884207D0521A05D0037801300B70013123
:1002A000013AF9D17047884202D002700130FAE772
:1002B00070470000004E0020004A0020005000203F
:1002C000004E0020202E0008000000200F0000201B
:1002D0003403000834030008442D0008202E0008D1
:1002E0000000002000000020442D0008442D0008DC
:1002F000442D0008442D0008442D0008442D00081A
:10030000442D0008442D0008202E0008302E00083F
:100310004C0100204C01002010000020480100206A
:10032000480100204C0100204C0100204C0300201B
:04033000AD0500080F
:10033400394930B48B69394A43F4036343F00D03FC
:100344008B618869364C40F4805088611168354B64
:1003540041F4401111601568334825F440051560D7
:100364006568324945F030056560656825F0C0056B
:1003740065601C6844F440341C601C6824F4402408
:100384001C601C6844F440141C601C6824F4800441
:100394001C601C6844F400041C601C6844F0407435
:1003A4001C601C6824F080641C601C6844F00064B9
:1003B4001C601C6844F040541C601C6824F0804499
:1003C4001C601C6844F000441C60536830BC23F07B
:1003D40030035360536823F0C0035360536843F001
:1003E40080035360036923F0F0030361036943F05E
:1003F400100303614B6843F400734B600B6843F4D0
:1004040000730B608B6843F400738B60CB6823F438
:100414000073CB60704700BF00100240000C014025
:1004240000100140000801400000014000040140A8
:1004340008B501F0F9FC00F083F8FFF779FF4FF6F7
:10044400FF01044AD3680B4043F0BF6343F4003315
:10045400D36008BD00ED00E0BFF34F8F0549064BA4
:10046400CA6802F4E0621343CB60BFF34F8F00BF4E
:10047400FDE700BF00ED00E00400FA05A0214FF401
:100484000002024B83F817131A60704700E100E082
:10049400014B5B69704700BF00040140014B5B697D
:1004A400704700BF00040140014B5B69704700BF07
:1004B40000040140014B5B69704700BF0004014028
:1004C400014B5B69704700BF00040140044B58694D
:1004D400820500D470474FF400725A6100F014BAD8
:1004E40000040140014B5B69704700BF00040140F8
:1004F40030B44FF41F054FF000640E4B0E4A1968D8
:100504000E4841F00101196059680A405A601A689E
:1005140022F0847222F480321A601A6822F4802253
:100524001A605A6822F4FE025A609D60846030BCEE
:10053400704700BF001002400000FFF800ED00E02B
:10054400114A536803F00C03082B0AD00F4B0E4AD0
:100554000F4852680F49C2F30312825CD3400B6008
:10056400704753685168C3F38343C90303F102031B
:1005740006D55268920303D4044A02FB03F3E6E768
:10058400054A02FB03F3E2E70010024000127A007E
:10059400442D00080000002000093D000122014B09
:1005A4001A607047240100202DE98048854C89B0E9
:1005B400FFF73EFF14220021204602F08EFB08259F
:1005C400FFF75CFF012302221946CDE900257E488E
:1005D4007E4A00F09FF97E497B4800F0BFFA4FF451
:1005E40080727C4B7C481A6101F04AF94EF2331355
:1005F40000277A4A7A4E01217748C4E900622381B0
:1006040001F0D6F97749704800F03CFA032000F075
:10061400DDFE7549704800F04FFBB4F8030000F0AC
:10062400A5FEB4F8050000F0BFFE29466A4800F0B4
:1006340065FE01216D4801F0D3F844F2340000F066
:1006440057FD44F2340000F069FD394662480297D0
:1006540001F050F8664EDFF8A481DFF8A4A1DFF8BA
:10066400A4915D4D3368A3B9D8F800B0BBF1000F75
:10067400F8D14FF47A732846C8F8003000F0C0FF70
:1006840001F0E0F85946284601F034F83368002BAD
:10069400EAD04FF0000B0F205946C6F800B000F026
:1006A400CFFDC107CAF80000DCD5420406D4BB461E
:1006B400002128465F4601F01DF8D3E74FF480423D
:1006C40059460F2000F0EAFD5946102000F0B8FD0D
:1006D4005A46C0F309030C214648039387F0010BE3
:1006E40000F074FD039B4FF40061434A47B90C2B9F
:1006F400516108D0284600F083FF01F0A3F8D7E742
:100704000C2B1161F6D10023002204A8CDE90623A5
:1007140000F088FD052204A906A802F0B5FADDE977
:10072400063213F1FA7742F10000390A41EA006017
:10073400C9E9003200F0EEFE44F23401D9F8003089
:1007440027F4FF720393029B22F00102A370039B20
:100754005718142000221B49C4F80A30C4F80E703C
:1007640000F0EEFC142128460123002200F012FDC3
:100774000121284600F0E4FE18B1284600F040FFAD
:1007840096E76423C8F80030336823B9D8F80030FA
:100794003368002BFAD000270F203946376000F069
:1007A4004FFD3946CAF800004FF0FF320F2000F029
:1007B40075FDDAF800301B06DFD5029B0133DBB28E
:1007C4000293DAE7100000203000002040420F00BE
:1007D400A10500080008014070000020435745505F
:1007E4004188004280C3C9010400002080D0050470
:1007F4002801002024000020000C014038010020C2
:100804003C010020300100204FF40002024B012083
:10081400C3F88020704700BF00E100E018B14FF436
:100824000002014B1A60704700E100E02DE9F0413D
:1008340005460C461746002140221448984602F00B
:100844004CFA21462A46114802F01EFA40220021A1
:100854000F4802F042FA10210E4AEB1951610E487A
:100864000B4A0A4900F07CF90C4C2368002BFCD09D
:10087400002607493A4640462944266002F004FA15
:100884001022044B30461A61BDE8F081E4000020D8
:10089400A4000020000801403000002024010020B2
:1008A4002DE9F041054688461F461646114C402264
:1008B4000021204602F011FA2A464146204602F061
:1008C400E3F932463946601902F0DEF910200A4A8B
:1008D400AB1950612146094A094800F041F9094A17
:1008E4001368002BFCD000201021034B1060196109
:1008F400BDE8F081E400002000080140A4000020CD
:1009040030000020240100200122014B1A607047AE
:10091400280100202DE9F04101299DF818709DF867
:100924001C5063D002295CD110264FF024084FF0EC
:10093400010C4E4CDFF848E10139C0E900484EF89B
:1009440021002168C0F808C021F040012160002B7B
:1009540058D0012B51D1022F4FF0050E4FF0040354
:1009640056D0032F56D1424B4249BCF1010F1B68AC
:100974004F6854D0BF040DD5496801F46051B1F5F6
:10098400205F6AD064D9B1F5405F68D0B1F5605F8B
:1009940000D11B1193FBF2F2002300E00B4602EBA3
:1009A400D272521003F10101F8D1DB0003F03803D5
:1009B40043EA0E0323606368082D43F00403636075
:1009C40040D0102D3BD1236843F400632360C560FD
:1009D4002368294943F04003236010464E60BDE874
:1009E400F0814FF0FF321046BDE8F08108264FF049
:1009F40023084FF0020C214C9CE76FF001021046D3
:100A0400BDE8F081022F4FF0070E4FF00603A8D186
:100A14009E46A8E76FF002021046BDE8F0817F050C
:100A2400B8D5496801F4E061B1F5A06F15D018D9C3
:100A3400B1F5C06F13D0B1F5E06FAAD0AAE76FF09B
:100A44000302D0E7236823F400632360C560BFE793
:100A5400B1F5005F9ED15B109CE79B109AE7DB1019
:100A640098E7B1F5806FF6D094E700BF00380040F6
:100A7400000000200010024000E100E000300140CE
:100A840040010020F8B5046882682368314823F0E7
:100A9400400305682360304B012A5A683CD0920415
:100AA4002BD495FBF1F1002300E0034601EBD17157
:100AB400491003F10100F8D12268DB0022F038026A
:100AC40003F038031343236001F002FA02460B4695
:100AD40000204FF0804102F039F806460F462846C0
:100AE40001F0F6F93B46324601F030FC236843F04E
:100AF4004003236001F003FAF8BD5B6803F460531C
:100B0400B3F5205F1DD017D9B3F5405F1BD0B3F503
:100B1400605FC6D12D11C4E75005C2D55B6803F4EC
:100B2400E063B3F5A06F0CD00FD9B3F5C06F0AD052
:100B3400B3F5E06FEED0B4E7B3F5005FB1D16D105B
:100B4400AFE7AD10ADE7ED10ABE7B3F5806FF6D0CE
:100B5400A7E700BF0000002000100240C1637047F7
:100B640030B4C5680468082D13D0102D05D10D8844
:100B74005B10C0E909230162A5810023036143617D
:100B8400036901330361636843F0C003636030BCED
:100B94007047C0E9061283620B782373EDE700BF48
:100BA400214B70B51C682668B568290629D4EA0764
:100BB40016D5E368082B2AD0636A1BB1F168626911
:100BC40023F812106369A26A013363616369934273
:100BD40006DB7368E26B23F04003736002B1904755
:100BE400AB070ED52269A36A9A420BDAE368082B95
:100BF40014D02269236A33F81230B3812369013394
:100C0400236170BD736823F08003736070BDE36972
:100C1400002BD7D0F16862699954D3E72369A2699C
:100C2400D35C3373EAE700BF40010020214B70B569
:100C34005C682668B568290629D4EA0716D5E368EE
:100C4400082B2AD0636A1BB1F168626923F8121079
:100C54006369A26A013363616369934206DB736863
:100C6400E26B23F04003736002B19047AB070ED5EB
:100C74002269A36A9A420BDAE368082B14D022692A
:100C8400236A33F81230B38123690133236170BDC1
:100C9400736823F08003736070BDE369002BD7D0C1
:100CA400F16862699954D3E72369A269D35C337309
:100CB400EAE700BF400100202DE9F0470F784A79A8
:100CC400042F1CBFA7F1070ABAFA8AFAD94B91F884
:100CD400018033F81290CA7908F1FF388CB00C46C1
:100CE40006465FFA88F814BF4FEA5A1A4FF0010A11
:100CF4004369002A40F09B8143F480034FEAD909F9
:100D0400207A23F44032030403F4403343F00053C5
:100D140013430CA941F8183D3072736104220BA8E7
:100D240001F0B2FF84230CAD05F8083D29460BAB56
:100D340004220120FFF7B4FD4FF0500C48F2EE4EB0
:100D44004FEA19202B460BA902228DF82900032013
:100D54008DF828908DF82EC0ADF82CE0FFF7A0FD9B
:100D64006D2048F2EE694FF0100C8DF80B000BA9C2
:100D74000DF10B0301220320ADF82C908DF82EC049
:100D8400FFF78EFDB8F1000F40F0898141F2076052
:100D94004FF0300C2B4602220BA9ADF8280003209B
:100DA4008DF82EC0ADF82C90FFF77AFDA24AA34B24
:100DB40012F807900CA953F82930042241F81C3D7D
:100DC4000BA801F061FF40F2EB7C0BAB0422294637
:100DD4000220ADF828C0FFF763FD40F6EB3C984ACB
:100DE4000DF1070312F809000BA901228DF8070081
:100DF4000220ADF82CC0FFF753FD40F6E83C914AC1
:100E04000DF1060312F80AE00BA9012202208DF865
:100E140006E0ADF82CC0FFF743FD8B4B0CA953F84B
:100E24002930042241F8203D0BA801F02DFF40F6A3
:100E3400E84C0BAB042229460220ADF828C0FFF78A
:100E44002FFD022240F2E72EE079A3797F4903EBDC
:100E5400400331F813C010464FEA1C292B460BA956
:100E64008DF828C08DF82990ADF82CE0FFF718FD17
:100E7400022240F2E74E764B104633F818C00BA915
:100E84002B464FEA1C298DF828C08DF82990ADF81F
:100E94002CE0FFF705FDE379002B00F01881A3781F
:100EA4000222042B00F0DA80202140F2E76C104685
:100EB4002B46ADF828100BA9ADF82CC0FFF7F0FCB9
:100EC400282042F2E76C8DF809000DF10903012294
:100ED4000BA90220ADF82CC0FFF7E2FCE3785D4AD1
:100EE40003EB880352F823300CA941F8143D042283
:100EF4000BA801F0C9FE40F6E70C0BAB042229460F
:100F04000220ADF828C0FFF7CBFCB4F80930002B61
:100F140000F0BE80D9B24FEA132C022242F2E70E4F
:100F2400DFF8349110462B468DF828100BA9ADF844
:100F34002CE08DF829C0FFF7B3FCD9F800300CA9D8
:100F440041F8103D04220BA801F09EFE40F6E34C4C
:100F54000BAB042229460220ADF828C0FFF7A0FC01
:100F6400022240F2E34E09EB4808B8F804C01046E8
:100F74004FEA1C282B460BA98DF828C08DF8298030
:100F8400ADF82CE0FFF78CFCA079002840F08A80B3
:100F9400014694F805C0637807F00F0242EACC6278
:100FA4003F0194F804C0FFB29B043A4303F4402386
:100FB4004FEA8C57134307F0F86213430B43034380
:100FC400294604220BA80A9301F05EFE9F230CAD70
:100FD40005F80C3D29460BAB04220120FFF760FC09
:100FE4006178A278E3790A435B0343EA0243294622
:100FF400F36004220BA8099301F046FE88230CAC8D
:1010040004F8243D21460BAB04220120FFF748FCE1
:10101400012242268D2523460BA910468DF80C602B
:101024008DF82C50FFF73CFC0CB0BDE8F08723F49E
:10103400800365E6AC2D00085C2D00088C2D0008AB
:10104400A42D0008E02D0008F02D0008E42D000870
:10105400842D0008642D0008542D00084FF0100959
:1010640040F2E76C2B460BA91046ADF82CC0ADF846
:101074002890FFF715FC42F2E76C02AB01220BA9A2
:1010840002208DF80890ADF82CC0FFF709FC25E785
:101094004122102311469C466272A3723DE740F23E
:1010A400076075E60122A120E37910498DF82C0030
:1010B40011F803C010460BA90DF10A038DF80AC0FC
:1010C400FFF7EEFB4FF400304FF4401161E70222CA
:1010D400642140F2E76CADF8281010462B460BA9AA
:1010E400ADF82CC0FFF7DCFBF8E600BF882D000844
:1010F40070B548F2EE45302482B0060A8DF800003F
:101104006B46022201A903208DF80160ADF804505A
:101114008DF80640FFF7C4FB02B070BD30B59824CB
:1011240083B0050A8DF800006B46022201A9012054
:101134008DF801508DF80440FFF7B2FB03B030BDC9
:101144001318B3F5806F22DC10B5841E82B0CAB1C7
:10115400C9207F2AD3B28DF804000FD9032063F08D
:101164007F03D2098DF805308DF806200B46224600
:1011740001A9FFF795FB002002B010BD8DF80530E2
:101184000220F3E7892301208DF80430EEE74FF0C5
:10119400FF30704710B5C06841EAC33384B00343DD
:1011A40043EA825304AC44F8083D214603A80422D0
:1011B40001F06AFD882304A901F80C3D042203AB65
:1011C4000120FFF76DFB04B010BD00BF10B503464E
:1011D40082B0E2B151207F2AD4B28DF804000DD937
:1011E400D2098DF8062064F07F040A46032001A981
:1011F4008DF80540FFF71AFB02B010BD0A46022025
:1012040001A98DF80540FFF711FB02B010BD1122B2
:1012140001208DF804200A4601A9FFF707FB02B05C
:1012240010BD00BF152300B583B002A901F8043D29
:10123400052203460120FFF7F9FA03B05DF804FB29
:10124400002200B58BB285B0C0B202920BB340F05D
:1012540040007F2B8DF80400C9B216D9032061F039
:101264007F01DB098DF805108DF80630042203ABED
:101274000DEB0201FFF7DAFA03A9042202A801F038
:1012840003FD029805B05DF804FB8DF805100220FB
:10129400ECE78DF804000120E8E700BF30B50D4607
:1012A400044685B004AB43F80C2D194603A8042268
:1012B40001F0EAFCABB2E4B2CBB164F03F047F2BA3
:1012C4008DF80840EDB20ED9032065F07F05DB09E7
:1012D4008DF809508DF80A3003AB042202A9FFF7F8
:1012E400DFFA05B030BD8DF809500220F4E764F050
:1012F4007F048DF808400120EEE700BFF0B5042517
:1013040000270C4685B02A4603AB0DEB05010646C3
:1013140001208DF804500297FFF788FA2A4603A9A2
:1013240002A801F0B1FC029A9CB90E4B134084242C
:10133400736102A9042203A8029301F0A5FC03AB84
:1013440001A9042201208DF80440FFF7A9FA05B091
:10135400F0BD054B04F4FF74134043F00103234331
:10136400E5E700BFFEFF47F001FE47F00346022217
:1013740010B540F2C32482B0010A8DF800308DF814
:1013840001106B4601A91046ADF80440FFF788FA36
:10139400022240F2432401AB69461046ADF80040F6
:1013A400FFF744FA02B010BD30B5832483B0050AB8
:1013B4008DF800006B46022201A901208DF801502E
:1013C4008DF80440FFF76CFA03B030BD70B50446E5
:1013D40010F0010086B05DD0262600258DF80C6043
:1013E400A62605AB03A9042201200495FFF71EFAE3
:1013F40005A9042204A801F047FC049B06A923F4D0
:10140400705343F4A05341F8143D042205A801F09D
:101414003BFC8DF81060362605AB04A9042201209C
:10142400FFF73EFA0495B62505AB03A90422012073
:101434008DF80C60FFF7FAF905A9042204A801F05D
:1014440023FC049B06A943F4040341F8183D042239
:1014540005A801F019FC05AB04A9042201208DF8AC
:101464001050FFF71DFAA30737D44FF4887306A969
:1014740041F8103D042205A801F006FC42F6F604EA
:1014840005AB04A904220220ADF81040FFF708FAC6
:1014940006B070BD26248DF80C40A62405AB03A924
:1014A400049004220120FFF7C1F905A904A804222D
:1014B40001F0EAFB049B04A923F4705305A8042259
:1014C400049301F0E1FB05AB03A9042201208DF88C
:1014D4000C40FFF7E5F906B070BD42F6F6040C4B7C
:1014E40006A941F8103D042205A801F0CDFB05AB87
:1014F40004A904220220ADF81040FFF7D1F94FF4FB
:10150400887303A9042205A8039301F0BDFBB7E780
:1015140010010F0000B585B004A941F8080D04229C
:1015240003A801F0B1FB4FF4E57304A921F80C3DC5
:10153400042203AB0220FFF7B3F905B05DF804FB06
:10154400F0B58B0785B00C46064634D40627022333
:1015540003AD14F001044FF001021FD08D24104696
:101564000DF1060329468DF806708DF80C40FFF73F
:1015740097F9022240F24F3702AB10462946ADF8E4
:101584000C70FFF753F99DF809309DF8080000EB43
:10159400032010F4816021D105B0F0BD8D268DF8B3
:1015A40008302946104602AB8DF80C60FFF778F935
:1015B400204605B0F0BD012280238D2703AD8DF8B0
:1015C400053010460DF1050329468DF80C70FFF720
:1015D40067F901238627B3768223BAE701224027DD
:1015E4000DF10703294610468DF80C408DF807705D
:1015F400FFF756F900234FF0FF30B376CCE700BF76
:10160400F0B500240E2687B005AB03A904220546D5
:10161400012004948DF80C60FFF708F905A9042251
:1016240004A801F031FB049FFFF7EEF804948E2424
:1016340004A90422064605A801F026FB05AB03A96C
:10164400042201208DF80C40FFF72AF901224023DF
:101654008D2405A910468DF802300DF102038DF892
:101664001440FFF71DF9224B03A9042205A8039394
:1016740001F00AFB8F2306AC04F8103D214605ABAC
:1016840004220120FFF70CF940F24F3C234605A940
:1016940001220220ADF814C0FFF7C8F89DF8083005
:1016A40083EA43031B060DD5012040F2CD3C0246DC
:1016B4008DF803000DF1030305A90220ADF814C051
:1016C400FFF7EEF82146042205A8029701F0DCFAA0
:1016D4008E2306A901F8143D042205AB0120FFF76F
:1016E400DFF83046FFF79AF80023AB7607B0F0BD79
:1016F400F8FF27042DE9F0430D46490785B08046DD
:1017040036D502AF03AE15F0010420D04FF4407477
:101714004FF08D09ADF8084040F24F343B460222A9
:10172400314601208DF80C90FFF7BAF83B460122B0
:1017340031460220ADF80C40FFF778F89DF80840D8
:1017440014F0080435D1204605B0BDE8F0834FF409
:1017540080708D25ADF808003B46314602220120F9
:101764008DF80C50FFF79CF8204605B0BDE8F083D7
:1017740040F24F3402AF03AE3B4601223146022011
:10178400ADF80C40FFF752F89DF8083083EA4303A4
:101794001A06B8D5012040F2CD3402468DF8070070
:1017A4000DF1070331460220ADF80C40FFF778F83D
:1017B400A9E74046FFF724FFAB0702D54FF0FF34FB
:1017C400C1E74FF480743B46314602220120ADF854
:1017D40008408DF80C904FF0FF34FFF761F8B2E742
:1017E400F0B585B00E460546FFF70EF80446002016
:1017F4000E2703AB01A90422029001208DF8047086
:10180400FFF714F803A902A8042201F03DFA029B91
:10181400AEB923EA05038E2502A9042203A8029384
:1018240001F032FA03AB01A9042201208DF804501F
:10183400FFF736F82046FEF7F1FF05B0F0BD2B4365
:10184400E9E700BF30B5E02583B040F2F6348DF807
:101854000350F02501A90DF1030301220220ADF884
:101864000440FFF71DF801A90DF102030122022033
:10187400ADF804408DF80250FFF712F803B030BD04
:10188400F0B5362485B002AB03A902220546012037
:101894008DF80C40FEF7CAFF0122B6269DF80840D9
:1018A4008DF80C6024F0030414438DF808404FF4C1
:1018B400FB7440F2F64602AB03A91046FEF7F0FFB4
:1018C40003A90DF1090301220220ADF80C40FEF733
:1018D400E7FF02220024ADF80C60AC2602AB03A99A
:1018E4001046ADF80840FEF7DBFF02AB03A9022265
:1018F40001208DF80C60ADF808400226FEF7D0FFF9
:1019040040F2EC604FF43B7703A90DF1050301228B
:10191400ADF80C0030468DF80540FEF7C1FF03A971
:101924000DF1060301223046ADF80C708DF8064027
:10193400FEF7B6FFADF80C7040F2F63703A90DF1CF
:101944000703012230468DF80760FEF7A9FF01ABBB
:10195400012203A930468DF80440ADF80C70FEF75F
:101964009FFF114B114A1B68A2FB03235B0B0393DC
:10197400039B5A1E03922BB100BF039B5A1E039272
:10198400002BF9D1F02040F2F6340DF103038DF869
:10199400030002A901220220ADF80840FEF780FFEF
:1019A4000023AB7605B0F0BD000000205917B7D175
:1019B4002DE9F04F00258BB009AB01914574857674
:1019C4000583C0E90955C0E90B5507A9042204465B
:1019D400012008958DF81C50FEF728FF042209A960
:1019E40008A801F051F9089AB44B9A4240F01882C1
:1019F40036262046FFF744FF08AB022209A901203E
:101A04008DF82460FEF712FF01229DF82060B627AE
:101A140026F0030616438DF820604FF4FB7610463B
:101A240008AB09A98DF82470FEF73AFF0DF12103E4
:101A3400012209A90220ADF82460FEF731FF01223A
:101A44000427A426104603AB09A98DF824608DF859
:101A54000C70FEF725FF02221E2640F2ED4B40F2E9
:101A6400ED684FF0030A40F66D29104608AB09A94A
:101A7400ADF82060ADF824B0FEF712FF0DF11203AB
:101A8400012209A902208DF812A0ADF82480FEF7E6
:101A940007FF0DF11303012209A90220ADF82480E8
:101AA4008DF81350FEF7FCFE09AB3A4607A9022055
:101AB4000895ADF81C90FEF7B9FE3A4609A908A8A6
:101AC40001F0E2F80222089E1046C6F3072363726F
:101AD40009A908ABADF824B0ADF82070FEF7E0FE1C
:101AE40004AB012209A902208DF810A0ADF82480CE
:101AF400FEF7D6FE0DF11103012209A90220ADF86B
:101B040024808DF81150FEF7CBFE09AB3A4607A9A5
:101B14000220ADF81C900895FEF788FE3A4609A904
:101B240008A801F0B1F89DF82030002B40F0658141
:101B340002224FF0060C40F2ED4A40F2ED674FF0FE
:101B44000309002540F66D28104608AB09A9ADF835
:101B540020C0ADF824A0FEF7A3FE0DF11603012268
:101B640009A902208DF81690ADF82470FEF798FEAE
:101B74000DF11703012209A90220ADF824708DF894
:101B84001750FEF78DFE09AB042207A90220089521
:101B9400ADF81C80FEF74AFE042209A908A801F04A
:101BA40073F802224FF0070C089B1046236009A922
:101BB40008ABADF820C0ADF824A0FEF771FE05AB6C
:101BC400012209A902208DF81490ADF82470FEF7C3
:101BD40067FE0DF11503012209A90220ADF8247056
:101BE4008DF81550FEF75CFE09AB07A9042202200C
:101BF4000895ADF81C80FEF719FE042209A908A86F
:101C040001F042F8089B16F01F06636000F0CE80D6
:101C1400267446F0600640F6EB650DF10E030122D2
:101C240009A902208DF80E60ADF82450FEF738FEA5
:101C3400019BDB0740F1BE8036258DF82450B62584
:101C440008AB022209A90120FEF7F0FD012240F2AF
:101C540001318DF824504FF4FB75104608ABADF8F4
:101C6400201009A9FEF71CFE0DF12103012209A988
:101C74000220ADF82450FEF713FE02224FF4004177
:101C840040F2ED65104608ABADF8201009A9ADF897
:101C94002450FEF705FE0A4B0A4A1B68A2FB0323E5
:101CA4005B0B0793079B5A1E07926BB100BF079B00
:101CB4005A1E0792002BF9D106E000BF3001CADE9C
:101CC400000000205917B7D136258DF82450B625C9
:101CD40008AB022209A90120FEF7A8FD0122002178
:101CE4008DF824504FF4FB759DF82130104623F0F5
:101CF40001038DF821308DF8201008AB09A9FEF7F7
:101D0400CFFD0DF12103012209A90220ADF82450D1
:101D1400FEF7C6FD238B43F4006323833625B626E2
:101D240008AB022209A901208DF82450FEF77EFD9C
:101D3400012200258DF824604FF4FB769DF82110D4
:101D4400104621F0010108AB8DF8211009A98DF886
:101D54002050FEF7A5FDADF8246040F6EC260DF109
:101D64002103012209A90220FEF79AFDADF824609F
:101D740004260DF10F03012209A902208DF80F504A
:101D8400FEF78EFD0AA909AB01F8106D3246012059
:101D94000895FEF74BFD324609A908A800F074FF28
:101DA4002846089B63610BB0BDE8F08F10237026B2
:101DB400237430E7022240F2765508AB09A9104695
:101DC400ADF82450FEF732FD4FF6FF51022240F2E7
:101DD400F6559DF821009DF82030ADF8245003EB12
:101DE400002319400D0A8DF82010104608AB09A9EC
:101DF4008DF82150FEF754FD90E7022141F2ED25C4
:101E040008460DF10D038DF80D10012209A9ADF856
:101E14002450FEF745FD238B43F48053238387E648
:101E24004FF0FF30BFE700BF254B1A46196841F059
:101E34000101196013689907FCD51168204B21F042
:101E4400F8011160116841F080011160516821F0BE
:101E540003015160116821F0807111601A689201C8
:101E6400FCD45A68174942F002025A600868144ABE
:101E740020F007000860086840F004000860596812
:101E840021F0F001596059685960596859605968DE
:101E940041F480615960596821F48031596059686E
:101EA40021F470115960596841F46011596019683E
:101EB40041F08071196013689B01FCD5704700BF25
:101EC40000100240002002400048704740010020FA
:101ED400004204BF0146704710F000424FEA12521C
:101EE40042F4806242F01D0200D54042B0FA80F113
:101EF4008840521AC30A400503EB025170474B0055
:101F04005A0DA2F54072FF3A0FD4D2F11F020EDD32
:101F140011EA410F4FEAC12141EA505040F000401C
:101F240020FA02F028BF4042704700207047004268
:101F340018BF43F0010313F5001F88BF21F00041CF
:101F440011F0004058BF6FF00040704781F000412D
:101F540083F0004383F00043F0B491EA030F00F1EF
:101F64008E80841A71EB030603D212197341001B8D
:101F7400B1414FF07F4646F4600616EA410F08BFB0
:101F840062E0B6EB410F98BF69E04FEA1154A4EB4D
:101F94001357B14341F4801116EA430F07BF0023DE
:101FA4000022B34343F48013D7F1200634D303FA59
:101FB40006F5401941F1000122FA07F5401923FA08
:101FC40007F541EB050102FA06F211F4001F19D1DD
:101FD40021F4801101EB0451F0BCB2F1004F08BFB1
:101FE40010EA500F50F1000041F100014FF07F431F
:101FF40043F46003B3EB410F88BF7047090D090533
:102004000020704749085FEA30005FEA320228BFC7
:1020140042F001020134DBE7203F402F19D223FABA
:1020240007F5401941F10001C7F12006124218BF1B
:10203400012203FA06F52A43C7E711EA560F04BF43
:1020440000200021F0BC704701F000410020F0BCEA
:10205400704721F4801101EB0451F0BC7047004239
:1020640018BF41F00101B6EB410F04BFF0BC70474B
:102074004FF0FE4141F478010020F0BC704783F03A
:102084000043841A71EB030705D287F00047001B55
:10209400B94112197B415FF07F4656F4600616EA97
:1020A400430FCAD0B6EB410F40F28C800C0DA4EB69
:1020B4001357C90241EA5051C00241F00041DB020A
:1020C40043EA5253D20243F00043D7F120065AD3D5
:1020D40002FA06FCFA4003FA06F52A43FB401CEA1E
:1020E4000C0F18BF42F00102801A9941E30A6405FB
:1020F400640D11F0404F2ED427D1002902BF0146B0
:102104000020203C00295BD0B1F5803F3FBF103C4C
:10211400090441EA10410004B1F1807F3FBF083C4B
:10212400090241EA10610002B1F1805F3FBF043C43
:10213400090141EA1071000111F0404F01BF023C56
:10214400890041EA9071800009425FBF013C490067
:1021540041EAD0714000002C11DD420521F000411C
:10216400C00A40EA4150C90A41EAC371460872F103
:10217400004250F1000051EB0451F0BC70470020C4
:10218400D907F0BC7047A7F12007202F0CD2C7F164
:10219400200603FA06F5FB402A4318BF43F0010367
:1021A400C01A61F10001A1E721F00041C00A40EA30
:1021B4004150C90A01EB0451F0BC704700200021D2
:1021C400F0BC7047004218BF41F00101B6EB410F6B
:1021D4007FF44EAFB6EB430F3FF44AAFF0BC704709
:1021E400F0B5574F81EA030517EA010E1EBF9EEAB8
:1021F400070F17EA030494EA070F64D04EEAD57E6A
:10220400A64421EA470141F4801123EA470343F439
:102214008013A1FB0247A0FB036536197D41A1FB96
:10222400034747F10003A0FB0217F619654153F178
:102234000003094218BF46F001061427B3F5007FD6
:1022440047F1000734BF3F4A3F4ABEEB020E31D488
:10225400C7F1200403FA04F105FA04F025FA07F2A1
:10226400114326FA07F2104316FA04F421F48011FC
:102274004FEA5E0741EA47010AD0B4F1004F50F13A
:10228400000041F10001B4F1004F08BF20F001004B
:102294002B4F1EEA070F10D041EACE71BE453CBF5A
:1022A400BDE8F04070472649002041EACE71BDE800
:1022B400F04070471EEB020EF5D44FEACE710020B9
:1022C400BDE8F0407047394204BF01F000410020EE
:1022D400004218BF41F001013B4204BF03F0004338
:1022E4000022124218BF43F0010307EA0304BC4270
:1022F40018BF9EEA070F05D005F000410020BDE895
:10230400F040704721F0004123F00043B9420FD858
:10231400BB420DD8002918BF002B09D005F000419D
:1023240041F0FE4141F470010020BDE8F0407047E7
:102334004FF0FE4141F478010020BDE8F0407047C1
:102344000000F07F0000F03F0000E03FF0B581EABC
:10235400030E0EF0004E814F17EA41051EBF95EAA9
:10236400070F17EA430494EA070F00F0C5806D0DC8
:10237400A5EB545707F580674FF0004646EAC124A1
:1023840044EA5054C00246EAC32343EA5253D202F9
:10239400801A9C4104D20018644180185C41013FBA
:1023A4005B084FEA32020025002140F001004FF0A3
:1023B400070604E0801A9C4136D340416441801AE8
:1023C4009C4136D340416441801A9C4136D34041FC
:1023D4006441801A9C4136D340416441801A9C4137
:1023E40036D340416441013E17D0801A9C4136D314
:1023F40040416441801A9C4136D340416441801A73
:102404009C4136D340416441090201EB15612D0220
:10241400454020F0FF004540CCE7801A9C4156D34C
:1024240035E080185C41C8D20018644180185C41D2
:10243400C8D20018644180185C41C8D200186441B5
:1024440080185C41C8D20018644180185C41C8D22D
:1024540000186441013E17D080185C41C8D20018AE
:10246400644180185C41C8D20018644180185C4102
:10247400C8D200186441090201EB15612D024540E0
:1024840020F0FF004540CCE780185C411FD342098F
:1024940018BF44F00104490101EBD56100F01F00AD
:1024A40000EB451021F4801141EA0E01013041F1A5
:1024B4000001244208BF20F00100B7F5006F3EDAA6
:1024C400013F49DD01EB0751BDE8F0407047490188
:1024D40001EBD56100F01F0000EB451021F48011E1
:1024E40041EA0E01B7F5006F29DA013F34DD01EB53
:1024F4000751BDE8F0407047004218BF41F00101A8
:10250400124218BF43F00103B7EB410F2CBFB7EBE6
:10251400430F1CE0B7EB410F04BFB7EB430F16E0CA
:1025240017EA410F04BF17EA430F10E017EA410FFF
:1025340012D017EA430F02D0B7EB430F0CD04EF082
:10254400FE4141F470010020BDE8F04070474FF0B7
:10255400FE4141F47801F6E77146F4E70000E0FF3C
:102564004FF4001C1CEB410F98BF1CEB430F0CD81D
:1025740050EA410C08BF52EA430C08D0904208BF0D
:1025840099420CBF012000207047002070470120B1
:1025940070474FF4001C1CEB410F98BF1CEB430F1A
:1025A40011D851EA030C50EA4C0C5CEA020C0CD032
:1025B40004D282428B41804101307047904299415C
:1025C40080410130704700207047012070474FF46C
:1025D400001C1CEB410F98BF1CEB430F11D851EAB0
:1025E400030C50EA4C0C5CEA020C0CD004D290426E
:1025F400994180410130704782428B4180410130D2
:10260400704700207047012070474FF4001C1CEBFA
:10261400410F98BF1CEB430F11D851EA030C50EA49
:102624004C0C5CEA020C0AD004D2904299418041DD
:102634004042704782428B418041404270470020B3
:1026440070474FF4001C1CEB410F98BF1CEB430F69
:1026540011D851EA030C50EA4C0C5CEA020C0AD083
:1026640004D282428B41804140427047904299415A
:10267400804140427047002070470128494111F5CC
:10268400001F8CBF01200020704700002DE9F0419D
:1026940000239046002206460F46FFF761FF30B143
:1026A400002330463946C8F80030BDE8F08127F0F1
:1026B400FF4323F4E00343F07F55C7F30A5345F483
:1026C4000015A3F2FE3330462946C8F80030BDE8B1
:1026D400F08100BF2DE9F0410023904600220F460F
:1026E4000446FFF73DFFB8B940F2FE72C7F30A5340
:1026F4004344934214DCB8F1000F01DB002B0FDBE1
:10270400002B09DD27F0FF4222F4E00242EA0355E0
:1027140020462946BDE8F08100200021BDE8F08173
:1027240000F0A8FA0346034A0020126802491A601E
:10273400BDE8F0811C2E00080000F07F2DE9F8436D
:1027440058A3D3E9002304460D46FFF77AFF002877
:1027540040F0968055A3D3E9002320462946FFF78D
:1027640054FF18B100200021BDE8F8832046294613
:1027740000F07CFA4FA3D3E90023FFF746FF0028BB
:1027840040F08A800022002320462946FFF71FFFDD
:10279400002600287ED0574F48A3D3E900232046C3
:1027A4002946FFF71DFD32463B46FFF7D5FBFFF7F1
:1027B400A6FB0646FFF78CFB42A3D3E90023804621
:1027C4008946FFF70DFD02460B4620462946FFF7D2
:1027D400C1FB3EA3D3E9002304460D4640464946C7
:1027E400FFF7FEFC02460B4620462946FFF7B4FBE2
:1027F40002460B4680468946FFF7F2FC35A3D3E92F
:10280400002304460D46FFF7EBFC34A3D3E9002371
:10281400FFF7A2FB22462B46FFF7E2FC0022364BD1
:10282400FFF79AFB42464B46FFF7DAFC2DA3D3E9A8
:1028340000238046894620462946FFF7D1FC2BA376
:10284400D3E90023FFF788FB22462B46FFF7C8FC99
:102854000022284BFFF780FB42464B46FFF77AFBEA
:1028640002460B4640464946FFF770FD01360022FA
:10287400204BFFF771FB3246FFF72CFFBDE8F883CE
:1028840000F0F8F903461D4A002012681C491A603A
:10289400BDE8F8831B4F7FE700201B49BDE8F883A0
:1028A400AFF30080EF39FAFE422E8640D2BC7ADDC7
:1028B4002B2386C02342920CA19CC73B3CF92F9E3C
:1028C4002C15F73F000000000030E63FA80C615CC7
:1028D40010D02B3F1CDC586FA452F13EE0F6B36FCE
:1028E400E4707C3F0938DE6F993F403FB351427139
:1028F4008E71AC3F0000E03F0000D03F1C2E00086A
:102904000000F07F0000E0BF0000F03F2DE9F04F31
:1029140083B004460D46FFF7B0FE002840F0BC80AB
:102924000022002320462946FFF71AFE002840F023
:10293400BB800022002320462946FFF766FE0028BC
:1029440040F0AA802046294601AAFFF79FFE69A30A
:10295400D3E9002304460D46FFF773FE002840F038
:10296400AD80019B204629465C1E0022734B0194D6
:10297400FFF7F0FA4FF0FF3204460D46FFF7AAFEC8
:1029840000226E4BFFF7E8FA02460B462046294622
:10299400FFF7DCFC06460F4632463B4630463946D6
:1029A400FFF71EFC55A3D3E9002304460D46FFF7A9
:1029B40017FC54A3D3E90023FFF7CEFA53A3D3E9BA
:1029C40000238046894620462946FFF7C3FA22465B
:1029D4002B46FFF705FC4FA3D3E90023FFF7BCFA0E
:1029E400424682468B464B4620462946FFF7F8FB73
:1029F4004AA3D3E90023FFF7ADFA5246804689463D
:102A04005B4620462946FFF7EBFB46A3D3E90023A8
:102A1400FFF7A0FA02460B4640464946FFF796FCEC
:102A240002460B4620462946FFF7DAFB32463B4670
:102A3400FFF7D6FB804601988946FFF749FA4246DC
:102A440004460D464B4630463946FFF785FA37A310
:102A5400D3E9002306460F4620462946FFF7C0FB6C
:102A640002460B4630463946FFF776FA31A3D3E9DE
:102A7400002306460F4620462946FFF7B1FB0246CF
:102A84000B4630463946FFF767FA02460B461046B6
:102A9400194603B0BDE8F08F294BD3E90023104653
:102AA400194603B0BDE8F08F264AD2E9002303F1AA
:102AB40000431046194603B0BDE8F08F224B0022B4
:102AC40020462946FFF746FA4FF0FF3206460F46E6
:102AD40020462946FFF7FEFD0022184BFFF73CFA7B
:102AE40002460B4630463946FFF730FC06460F4691
:102AF40052E700BFCD3B7F669EA0E63F29BD56B39B
:102B04001544E9BFEDAF16204A6230400FCE674B43
:102B140080D541407E2615FA838073409AB5B3125E
:102B2400FF07504077900D9CFE0B8840A80C615C19
:102B340010D02BBF000000000030E63F0000E03F53
:102B4400102E0008082E00080000F03F2DE9D043A5
:102B54009046994606460F460022414B4046494658
:102B6400FFF7FEFCE0BB0022002330463946FFF7A6
:102B7400F7FC70B14046494600220023FFF709FDE7
:102B8400A0BB4FF000084FF0000940464946BDE89D
:102B9400D08349464046FFF7B2F90446FFF798F957
:102BA40042464B46FFF7DCFC68BB0022002330465C
:102BB4003946FFF72AFDC8B93046394600F056F8C1
:102BC400FFF7A4FE02460B4640464946FFF708FBC2
:102BD400FFF7B4FD8046894640464946BDE8D083A8
:102BE400B046B94640464946BDE8D08300F042F8B5
:102BF4004FF000081B4BDFF870901B6849460360D8
:102C04004046BDE8D083002C1BDB24D0E3074FF003
:102C14000008DFF84C9007D54046494632463B460B
:102C2400FFF7DEFA804689466410AED03B46324652
:102C340030463946FFF7D4FAE30706460F46F3D584
:102C4400EAE732463B4600200549FFF77FFB644232
:102C540006460F46DAE74FF00008DFF8049094E7E1
:102C64000000F03F182E00080000F0FF21F00041A2
:102C74007047000000B5FFF727F9024B18445DF8D0
:102C840004FB00BF08000000844640EA010313F07F
:102C9400030F18D18446202A0BD32DE9F007B1E89D
:102CA400F807A0E8F807A2F12002202AF7D2BDE82D
:102CB400F007042A07D351F8043B40F8043BA2F17F
:102CC4000402042AF7D2002A05D011F8013B00F8C7
:102CD400013B013AF9D1604670478446002A2DD061
:102CE40010F0030F04D000F8011B013A26D0F7E7D7
:102CF400C9B241EA012141EA0141202A12D3A2F1D9
:102D040020022DE9F0030B460C460D460E460F46F5
:102D140088468946A0E8FA03203AFBD2BDE8F003CE
:102D240020320BD0042A05D340F8041B043A05D002
:102D3400042AF9D200F8011B013AFBD1604670471E
:102D44000000000000000000010203040607080957
:102D540007A9022570889B8800000102030400056E
:102D64002D001A3152001A339A001A351D011A37F0
:102D74006B003B31BE003B335E013B3596023B3773
:102D840087008D004010080007040009080540086A
:102D940009104008080540081D0400081D04000827
:102DA4001E265626BEBE0000000098599859EA51C6
:102DB4008E421E45142E0080EA51F4283233E03A44
:102DC400703DE03AC235842BC2353233C235C23548
:102DD400AE47E03A5038A23050380000D8BC00006A
:102DE4000A0016000100060001000200405C000019
:102DF400A05C0400C06C0800805C0400E03F1E007E
:102E0400E07D1E00000000000000F07F00000000D4
:0C2E14000000F87F2100000022000000F8
:0F2E200000A24A04030214000909000200810005
:0400000508000131BD
:00000001FF
