:020000040800F2
:10000000004E002031010008590100086D0400086D
:1000100000000000000000000000000000000000E0
:100020000000000000000000000000005D0100086A
:1000300000000000000000005F01000861010008EE
:100040006501000867010008690100086B010008EC
:100050006D0100086F010008A1040008AD0400084C
:10006000B9040008C5040008D10400087B01000899
:100070007D0100087F01000881010008830100085C
:100080008501000887010008890100088B0100082C
:100090008D0100088F01000891010008DD040008AF
:1000A0009501000897010008990100089B010008CC
:1000B0009D0100089F010008A1010008A30100089C
:1000C000A5010008A7010008A9010008050F000804
:1000D000310F0008AF010008B1010008B3010008AA
:1000E000FD040008B7010008B9010008BB010008C1
:1000F000BD010008BF010008C1010008C3010008DC
:10010000C5010008C7010008C90100085D0F00080B
:10011000CD010008CF010008D1010008D30100087B
:10012000D5010008D7010008D9010008DB0100084B
:10013000054820F0070085460448804704480549E3
:10014000016000F04BB800000050002009050008D5
:1001500008ED00E000000008FEE7FEE7FEE7FEE72E
:10016000FEE7FEE7FEE7FEE7FEE7FEE7FEE7FEE767
:10017000FEE7FEE7FEE7FEE7FEE7FEE7FEE7FEE757
:10018000FEE7FEE7FEE7FEE7FEE7FEE7FEE7FEE747
:10019000FEE7FEE7FEE7FEE7FEE7FEE7FEE7FEE737
:1001A000FEE7FEE7FEE7FEE7FEE7FEE7FEE7FEE727
:1001B000FEE7FEE7FEE7FEE7FEE7FEE7FEE7FEE717
:1001C000FEE7FEE7FEE7FEE7FEE7FEE7FEE7FEE707
:1001D000FEE7FEE7FEE7FEE7FEE7FEE735493648C5
:1001E0000A1A02D0072291438D46344934480A1A2C
:1001F00006D00722914381F30988022282F31488F2
:1002000030483149314A00F043F831483149324AE7
:1002100000F03EF831483249324A00F039F83248AD
:100220003249334A00F034F832483349334A00F057
:100230002FF833483349344A00F02AF83348344918
:10024000344A00F025F834483449002200F02BF8F5
:1002500033483449002200F026F833483349091A5C
:10026000082903DB00220260043001601F48204996
:10027000884205D00268043003B4904703BCF7E716
:1002800000208646EC4600200021294A9047FEE7E0
:10029000884207D0521A05D0037801300B70013123
:1002A000013AF9D17047884202D002700130FAE772
:1002B00070470000004E0020004A0020005000203F
:1002C000004E0020384D0008000000200F000020E4
:1002D000340300083403000874480008384D00084F
:1002E0000000002000000020744800087448000846
:1002F00074480008744800087448000874480008EE
:100300007448000874480008384D0008484D00083B
:100310006401002064010020100000206001002022
:1003200060010020640100206401002064020020BC
:04033000A908000810
:1003340010B504460A2803D0204603F0C9F910BDBD
:100344000D2003F0C5F9F7E7394A936943F40363D1
:1003540043F00D039361936943F480539361A2F5D1
:100364008232136843F440131360136823F4400388
:100374001360304B596841F030015960596821F0DD
:10038400C0015960A3F50063196841F44031196054
:10039400196821F440211960196841F44011196069
:1003A400196821F480011960196841F40001196089
:1003B400196841F040711960196821F08061196071
:1003C400196841F000611960196841F040511960E1
:1003D400196821F080411960196841F000411960E1
:1003E400536823F030035360536823F0C003536011
:1003F400536843F0800353600F4B1A6922F0F002F4
:100404001A611A6942F010021A6103F580635A688E
:1004140042F400725A601A6842F400721A609A68D0
:1004240042F400729A60DA6822F40072DA6070476B
:1004340000100240001001400000014008B501F026
:100444008BFE00F085F8FFF77FFF064AD36823F49C
:10045400E0631B041B0C43F0BF6343F40033D3601D
:1004640008BD00BF00ED00E008B5044803F00AF839
:100474005B220349034803F005F8FEE774480008CB
:100484008048000808490008034BA02283F817237A
:100494004FF400021A60704700E100E0014B5B6911
:1004A400704700BF00040140014B5B69704700BF07
:1004B40000040140014B5B69704700BF0004014028
:1004C400014B5B69704700BF00040140014B5B694D
:1004D400704700BF0004014008B5064B586910F48A
:1004E400007F00D108BD4FF400725A6100F078FA21
:1004F400F8E700BF00040140014B5B69704700BF8F
:10050400000401400F4B1A6842F001021A60596856
:100514000D4A0A405A601A6822F0847222F480322A
:100524001A601A6822F480221A605A6822F4FE02C1
:100534005A604FF41F029A60044B4FF000629A60B5
:10054400704700BF001002400000FFF800ED00E01B
:100554001F4B5B6803F00C03042B14D0082B16D03C
:100564001BB11C4B1C4A1A6002E01A4B1A4A1A604F
:10057400174B5B68C3F30313184AD15C154A13681D
:10058400CB4013607047134B134A1A60F0E7104ACC
:1005940053685268C3F38343023312F4803F05D196
:1005A4000F4A02FB03F30B4A1360E1E7084A52685F
:1005B40012F4003F05D00A4A02FB03F3054A136014
:1005C400D6E7054A02FB03F3024A1360D0E700BFF3
:1005D400001002400000002000127A0020490008A8
:1005E40000093D00014B01221A60704724010020DC
:1005F40010B582B0084C0823019302230093012311
:10060400064A1946204600F051FA0549204600F0F2
:1006140021FC02B010BD00BF3000002040420F009A
:10062400E905000800B585B000220023CDE90023C8
:1006340002A800F05DFF052202A9684602F053FFFC
:10064400DDE9000105B05DF804FB0000F8B5FFF733
:10065400CFFF814B4FF480721A61804C204601F029
:1006640075FA7F4B48F641021A804222DA7043221F
:100674001A71E1225A725022DA7133221A72562206
:100684005A7145229A7100229A700121204601F084
:10069400F5FAB0F1FF3F08D1724802F0F3FED1221F
:1006A4007149724802F0EEFEFEE77149714800F0AC
:1006B40033FB0146704802F0E5FE032000F0ECFF36
:1006C400664C6E49204600F05DFC654DB5F80300AC
:1006D40000F0B2FFB5F8050000F0CCFF0821204679
:1006E40000F072FF0121664801F0E0F944F23400A1
:1006F40000F064FE44F2340000F076FE002120464F
:1007040001F05EF90024254610E05E4B4FF47A7246
:100714001A60524E304601F0D9F801F0F9F900217F
:10072400304601F04DF9584802F0ACFE574B1B68B7
:1007340023B9544B1B68002BF8D1E6E70021534B37
:1007440019600F2000F0E2FE514B186010F0010F09
:10075400ECD010F4804F04D10021404801F030F96E
:10076400E4E74FF4804200210F2000F0FDFE002159
:10077400102000F0CBFEC0F3090600220C214548EE
:1007840000F08AFE002C0CBF012400240BD1424B44
:100794004FF400625A610C2E0AD0304801F096F8EA
:1007A40001F0B6F9D8E73C4B4FF400621A61F2E766
:1007B400FFF738FF394F3860796010F1FA7641F16C
:1007C4000001300A40EA016001F00AF826F4FF73E0
:1007D40023F001033A682249C1F80A2003F5804353
:1007E4003433C1F80E308D700022142000F00EFE58
:1007F4001A4E012300221421304600F031FE01215B
:10080400304601F003F818B1144801F05FF8A3E78B
:100814001C4B64221A601D4B1B683BB9194B1B68A7
:10082400002BF8D11E4802F02DFEF4E70026174BEA
:100834001E6031460F2000F069FE154F38604FF0FE
:10084400FF3231460F2000F08FFE3B6813F0800F1B
:10085400DAD00135EDB2D7E700080140700000207E
:10086400100000204C4900085C49000808490008B1
:1008740080C3C90130000020E449000804000020BE
:1008840080D0050438010020F44900082801002024
:100894003C01002024000020000C01403001002015
:1008A400044A000808B5FFF7C9FD074B1968074853
:1008B40002F0E8FD14220021054802F03DFEFFF796
:1008C400E3FDFFF7C3FE00BF00000020304900082D
:1008D40010000020034B4FF40002C3F880200120D5
:1008E400704700BF00E100E018B1024B4FF4000272
:1008F4001A60704700E100E02DE9F04104460F461C
:1009040016469846164D40220021284602F014FE51
:1009140022463946284602F0E6FD124F40220021C5
:10092400384602F009FE104B10225A61A3193A46C8
:1009340029460E4800F0A6FA0D4B1B68002BFBD08D
:1009440000250B4B1D60324606492144404602F007
:10095400CAFD054B10221A612846BDE8F08100BF8C
:10096400E4000020A4000020000801403000002022
:10097400240100202DE9F0410546884616461F460D
:10098400124C40220021204602F0D6FD2A46414660
:10099400204602F0A8FD32463946601902F0A3FD54
:1009A4000B4B10225A61AB190A4A21460A4800F03F
:1009B40069FA0A4B1B68002BFBD00020074B186018
:1009C400034B10221A61BDE8F08100BFE40000204F
:1009D40000080140A4000020300000202401002071
:1009E400014B01221A6070472801002070B5056888
:1009F400AE6800282FD0044616F0800F2AD116F0D6
:100A0400010F1CD0EB68DBB290F8382012F0010F14
:100A140028D1C2690AB141695354636901336361DE
:100A24006269A36A9A420ADB6B6823F040036B6035
:100A34002B6823F040032B60E36B03B1984716F057
:100A4400020F07D02269A36A9A4212DB6B6823F073
:100A540080036B6070BD4FF456721249124802F065
:100A640011FDFEE7426A002AD7D0416922F811300D
:100A7400D3E794F8383013F0010F09D1E3691BB1BF
:100A8400A2692369D35C2B73236901332361E1E7F2
:100A9400636A002BF8D0236A226933F81230EB60C2
:100AA400F2E700BF184A000808490008F8B59DF8A5
:100AB40018C040B3054662B389B3012935D0022971
:100AC40040F0118101208C4E24272E606F60A860B5
:100AD4000139DFF840E24EF82150316821F040013D
:100AE4003160F16921F40061F16113B3012B40F02D
:100AF400FD800423BCF1020F1DD0BCF1030F32D0E2
:100B04006FF00200F1E070227C497D4802F0BAFCEB
:100B1400FEE7712279497A4802F0B4FCFEE77222BA
:100B24007649774802F0AEFCFEE70220754E232793
:100B3400CBE70623DEE723F00101012816D00228C3
:100B44004FD1714B5B6803F46053B3F5205F40D021
:100B540034D9B3F5405F40D0B3F5605F22D16B4B1D
:100B64001C6824091EE043F00101E6E7664B5B685C
:100B740003F4E063B3F5A06F18D007D883B1B3F5DD
:100B8400806F0FD1614B1C6864080BE0B3F5C06F34
:100B940010D0B3F5E06F05D15C4B1C68240901E06B
:100BA4005A4B1C68B4FBF2F0002321E0574B1C683D
:100BB400A408F7E7554B1C68E408F3E733B1B3F531
:100BC400005FEFD1514B1C686408EBE74F4B1C6886
:100BD400E8E74E4B1C68A408E4E74C4B1C68E408A7
:100BE400E0E7FA224549464802F04CFCFEE713468A
:100BF40000EBD0705A1C4010F9D121F0380242EABF
:100C0400C3023260736843F0040373609DF81C30C0
:100C1400043B0C2B6DD8DFE803F0071215181B1EDC
:100C2400273039424B545D000423EB6007F0070181
:100C34007B0901228A40364941F8232055E00523E7
:100C4400EB60F3E70623EB60F0E70723EB60EDE7E7
:100C54000823EB60EAE70923EB6095F8383043F0AA
:100C6400010385F83830E1E70A23EB6095F8383062
:100C740043F0010385F83830D8E70B23EB6095F88F
:100C8400383043F0010385F83830CFE70C23EB60AC
:100C940095F8383043F0010385F83830C6E70D2362
:100CA400EB6095F8383043F0010385F83830BDE740
:100CB4000E23EB6095F8383043F0010385F83830A3
:100CC400B4E70F23EB6095F8383043F0010385F85F
:100CD4003830ABE71023EB6095F8383043F001036C
:100CE40085F83830A2E74FF0FF30F8BD6FF001000F
:100CF400FBE76FF00300F8E700380040184A0008EB
:100D040008490008003001400010024000000020A3
:100D140000E100E040010020D0B5B8B1E9B10268BB
:100D24008368012B20D0022B5BD1464B5B6803F414
:100D34006053B3F5205F4CD03ED8002B46D0B3F5BA
:100D4400005F2DD1404B1C68640829E040F2022268
:100D54003E493F4802F096FBFEE740F203223B493E
:100D64003B4802F08FFBFEE7364B5B6803F4E0631D
:100D7400B3F5A06F18D009D9B3F5C06F18D0B3F587
:100D8400E06F0DD1304B1C68240909E033B1B3F591
:100D9400806F05D12C4B1C68640801E02A4B1C6849
:100DA400B4FBF1F3002124E0274B1C68A408F7E707
:100DB400254B1C68E408F3E7B3F5405F0DD0B3F5A9
:100DC400605FEDD1204B1C682409E9E71E4B1C68C9
:100DD400E6E71D4B1C68A408E2E71B4B1C68E4080B
:100DE400DEE740F246221949194802F04BFBFEE7C0
:100DF400014603EBD373481C5B10F9D1136823F04D
:100E040040031360136823F0380343EAC1031360FB
:100E1400136843F04003136001F0F2F902460B46F5
:100E240000204FF0804102F025F906460F46204687
:100E340001F0FDF932463B4601F0C6FC01F089FAA7
:100E4400D0BD00BF0010024000000020184A000876
:100E54000849000808B510B141B1C16308BD40F2AA
:100E64006A220649064802F00DFBFEE740F26B22B7
:100E74000249034802F006FBFEE700BF184A0008D7
:100E84000849000838B50468D0B101B333B300256C
:100E94000561456190F8385015F0010F25D1C26104
:100EA400816183620B78237303690133036163688F
:100EB40043F0C0036360236843F04003236038BDFC
:100EC4004FF41F720C490D4802F0DCFAFEE740F2C1
:100ED4007D220949094802F0D5FAFEE740F27E2254
:100EE4000549064802F0CEFAFEE7426201625B1051
:100EF40083620B88E360D7E7184A000808490008B2
:100F040008B5074B1B6823B1054B1868FFF76EFD46
:100F140008BD40F2A1320349034802F0B3FAFEE7E8
:100F240040010020184A00080849000808B5074B8A
:100F34005B6823B1054B5868FFF758FD08BD4FF4B3
:100F44006B720349034802F09DFAFEE7400100205A
:100F5400184A00080849000808B5074B9B6823B1E4
:100F6400054B9868FFF742FD08BD40F2B7320349CC
:100F7400034802F087FAFEE740010020184A0008FF
:100F8400084900082DE9F0470F784A79042F1CBF5F
:100F9400A7F1070ABAFA8AFAD94B91F8018033F813
:100FA4001290CA7908F1FF388CB00C4606465FFAF5
:100FB40088F814BF4FEA5A1A4FF0010A4369002A0D
:100FC40040F09B8143F480034FEAD909207A23F44B
:100FD4004032030403F4403343F0005313430CA999
:100FE40041F8183D3072736104220BA802F07BFAB9
:100FF40084230CAD05F8083D29460BAB04220120DF
:10100400FFF7B8FC4FF0500C48F2EE4E4FEA1920AF
:101014002B460BA902228DF8290003208DF8289075
:101024008DF82EC0ADF82CE0FFF7A4FC6D2048F23B
:10103400EE694FF0100C8DF80B000BA90DF10B03AA
:1010440001220320ADF82C908DF82EC0FFF792FCFE
:10105400B8F1000F40F0898141F207604FF0300C85
:101064002B4602220BA9ADF8280003208DF82EC0D0
:10107400ADF82C90FFF77EFCA24AA34B12F8079020
:101084000CA953F82930042241F81C3D0BA802F0A6
:101094002AFA40F2EB7C0BAB042229460220ADF87D
:1010A40028C0FFF767FC40F6EB3C984A0DF10703B4
:1010B40012F809000BA901228DF807000220ADF8EF
:1010C4002CC0FFF757FC40F6E83C914A0DF10603AB
:1010D40012F80AE00BA9012202208DF806E0ADF80F
:1010E4002CC0FFF747FC8B4B0CA953F82930042282
:1010F40041F8203D0BA802F0F6F940F6E84C0BABA2
:10110400042229460220ADF828C0FFF733FC02224E
:1011140040F2E72EE079A3797F4903EB400331F8ED
:1011240013C010464FEA1C292B460BA98DF828C082
:101134008DF82990ADF82CE0FFF71CFC022240F258
:10114400E74E764B104633F818C00BA92B464FEAEE
:101154001C298DF828C08DF82990ADF82CE0FFF7F4
:1011640009FCE379002B00F01881A3780222042BF8
:1011740000F0DA80202140F2E76C10462B46ADF8EF
:1011840028100BA9ADF82CC0FFF7F4FB282042F27D
:10119400E76C8DF809000DF1090301220BA9022067
:1011A400ADF82CC0FFF7E6FBE3785D4A03EB880358
:1011B40052F823300CA941F8143D04220BA802F084
:1011C40092F940F6E70C0BAB042229460220ADF855
:1011D40028C0FFF7CFFBB4F80930002B00F0BE8025
:1011E400D9B24FEA132C022242F2E70EDFF834910F
:1011F40010462B468DF828100BA9ADF82CE08DF87D
:1012040029C0FFF7B7FBD9F800300CA941F8103D0D
:1012140004220BA802F067F940F6E34C0BAB04225E
:1012240029460220ADF828C0FFF7A4FB022240F2B1
:10123400E34E09EB4808B8F804C010464FEA1C28EE
:101244002B460BA98DF828C08DF82980ADF82CE029
:10125400FFF790FBA079002840F08A80014694F8BB
:1012640005C0637807F00F0242EACC623F0194F8AC
:1012740004C0FFB29B043A4303F440234FEA8C5763
:10128400134307F0F86213430B4303432946042234
:101294000BA80A9302F027F99F230CAD05F80C3D27
:1012A40029460BAB04220120FFF764FB6178A27886
:1012B400E3790A435B0343EA02432946F3600422C9
:1012C4000BA8099302F00FF988230CAC04F8243D11
:1012D40021460BAB04220120FFF74CFB01224226DE
:1012E4008D2523460BA910468DF80C608DF82C50E3
:1012F400FFF740FB0CB0BDE8F08723F4800365E6FC
:10130400FC4A0008AC4A0008DC4A0008F44A000819
:10131400304B0008404B0008344B0008D44A000806
:10132400B44A0008A44A00084FF0100940F2E76CE0
:101334002B460BA91046ADF82CC0ADF82890FFF74A
:1013440019FB42F2E76C02AB01220BA902208DF8D3
:101354000890ADF82CC0FFF70DFB25E741221023C0
:1013640011469C466272A3723DE740F2076075E63F
:101374000122A120E37910498DF82C0011F803C053
:1013840010460BA90DF10A038DF80AC0FFF7F2FA13
:101394004FF400304FF4401161E70222642140F21F
:1013A400E76CADF8281010462B460BA9ADF82CC0FD
:1013B400FFF7E0FAF8E600BFD84A000870B548F233
:1013C400EE45302482B0060A8DF800006B460222F6
:1013D40001A903208DF80160ADF804508DF8064092
:1013E400FFF7C8FA02B070BD30B5982483B0050A7F
:1013F4008DF800006B46022201A901208DF80150EE
:101404008DF80440FFF7B6FA03B030BD1318B3F5F6
:10141400806F22DC10B5841E82B0CAB1C9207F2A35
:10142400D3B28DF804000FD9032063F07F03D209EF
:101434008DF805308DF806200B46224601A9FFF7EA
:1014440099FA002002B010BD8DF805300220F3E7B0
:10145400892301208DF80430EEE74FF0FF30704708
:1014640010B5C06841EAC33384B0034343EA8253EE
:1014740004AC44F8083D214603A8042202F033F8E2
:10148400882304A901F80C3D042203AB0120FFF7D3
:1014940071FA04B010BD00BF10B5034682B0E2B1CA
:1014A40051207F2AD4B28DF804000DD9D2098DF8C9
:1014B400062064F07F040A46032001A98DF8054044
:1014C400FFF71AFA02B010BD0A46022001A98DF8EE
:1014D4000540FFF711FA02B010BD112201208DF86A
:1014E40004200A4601A9FFF707FA02B010BD00BFA5
:1014F400152300B583B002A901F8043D0522034673
:101504000120FFF7F9F903B05DF804FB002200B5F0
:101514008BB285B0C0B202920BB340F040007F2B77
:101524008DF80400C9B216D9032061F07F01DB09EC
:101534008DF805108DF80630042203AB0DEB020183
:10154400FFF7DAF903A9042202A801F0CCFF0298FC
:1015540005B05DF804FB8DF805100220ECE78DF86A
:1015640004000120E8E700BF30B50D46044685B00D
:1015740004AB43F80C2D194603A8042201F0B3FF71
:10158400ABB2E4B2CBB164F03F047F2B8DF80840DA
:10159400EDB20ED9032065F07F05DB098DF8095003
:1015A4008DF80A3003AB042202A9FFF7E3F905B072
:1015B40030BD8DF809500220F4E764F07F048DF803
:1015C40008400120EEE700BFF0B5042500270C46D3
:1015D40085B02A4603AB0DEB0501064601208DF8C4
:1015E40004500297FFF788F92A4603A902A801F0DC
:1015F4007AFF029A9CB90E4B13408424736102A9AA
:10160400042203A8029301F06EFF03AB01A9042294
:1016140001208DF80440FFF7ADF905B0F0BD054B8E
:1016240004F4FF74134043F001032343E5E700BFD0
:10163400FEFF47F001FE47F00346022210B540F2D8
:10164400C32482B0010A8DF800308DF801106B4676
:1016540001A91046ADF80440FFF78CF9022240F2CC
:10166400432401AB69461046ADF80040FFF744F946
:1016740002B010BD30B5832483B0050A8DF8000094
:101684006B46022201A901208DF801508DF8044017
:10169400FFF770F903B030BD70B5044610F00100D7
:1016A40086B05DD0262600258DF80C60A62605ABF5
:1016B40003A9042201200495FFF71EF905A90422B9
:1016C40004A801F010FF049B06A923F4705343F40B
:1016D400A05341F8143D042205A801F004FF8DF83D
:1016E4001060362605AB04A904220120FFF742F955
:1016F4000495B62505AB03A9042201208DF80C60DE
:10170400FFF7FAF805A9042204A801F0ECFE049BF3
:1017140006A943F4040341F8183D042205A801F086
:10172400E2FE05AB04A9042201208DF81050FFF756
:1017340021F9A30737D44FF4887306A941F8103D63
:10174400042205A801F0CFFE42F6F60405AB04A975
:1017540004220220ADF81040FFF70CF906B070BD6A
:1017640026248DF80C40A62405AB03A9049004227A
:101774000120FFF7C1F805A904A8042201F0B3FE73
:10178400049B04A923F4705305A80422049301F0D4
:10179400AAFE05AB03A9042201208DF80C40FFF733
:1017A400E9F806B070BD42F6F6040C4B06A941F800
:1017B400103D042205A801F096FE05AB04A90422FD
:1017C4000220ADF81040FFF7D5F84FF4887303A951
:1017D400042205A8039301F086FEB7E710010F0069
:1017E40000B585B004A941F8080D042203A801F04E
:1017F4007AFE4FF4E57304A921F80C3D042203ABEF
:101804000220FFF7B7F805B05DF804FBF0B58B07CD
:1018140085B00C46064634D40627022303AD14F0E3
:1018240001044FF001021FD08D2410460DF1060370
:1018340029468DF806708DF80C40FFF79BF80222BC
:1018440040F24F3702AB10462946ADF80C70FFF753
:1018540053F89DF809309DF8080000EB032010F4BC
:10186400816021D105B0F0BD8D268DF80830294660
:10187400104602AB8DF80C60FFF77CF8204605B0EB
:10188400F0BD012280238D2703AD8DF8053010466D
:101894000DF1050329468DF80C70FFF76BF8012351
:1018A4008627B3768223BAE7012240270DF1070386
:1018B400294610468DF80C408DF80770FFF75AF84A
:1018C40000234FF0FF30B376CCE700BFF0B500241F
:1018D4000E2687B005AB03A9042205460120049413
:1018E4008DF80C60FFF708F805A9042204A801F09C
:1018F400FAFD049FFEF7EEFF04948E2404A904224B
:10190400064605A801F0EFFD05AB03A9042201205A
:101914008DF80C40FFF72EF8012240238D2405A9F1
:1019240010468DF802300DF102038DF81440FFF7D4
:1019340021F8224B03A9042205A8039301F0D3FD47
:101944008F2306AC04F8103D214605AB0422012088
:10195400FFF710F840F24F3C234605A9012202206C
:10196400ADF814C0FEF7C8FF9DF8083083EA4303BE
:101974001B060DD5012040F2CD3C02468DF8030034
:101984000DF1030305A90220ADF814C0FEF7F2FF20
:101994002146042205A8029701F0A5FD8E2306A97D
:1019A40001F8143D042205AB0120FEF7E3FF3046A5
:1019B400FEF79AFF0023AB7607B0F0BDF8FF2704CB
:1019C4002DE9F0430D46490785B0804636D502AF70
:1019D40003AE15F0010420D04FF440744FF08D098C
:1019E400ADF8084040F24F343B4602223146012014
:1019F4008DF80C90FEF7BEFF3B46012231460220D3
:101A0400ADF80C40FEF778FF9DF8084014F0080488
:101A140035D1204605B0BDE8F0834FF480708D25A4
:101A2400ADF808003B463146022201208DF80C50E7
:101A3400FEF7A0FF204605B0BDE8F08340F24F3426
:101A440002AF03AE3B46012231460220ADF80C4002
:101A5400FEF752FF9DF8083083EA43031A06B8D50F
:101A6400012040F2CD3402468DF807000DF1070342
:101A740031460220ADF80C40FEF77CFFA9E7404652
:101A8400FFF724FFAB0702D54FF0FF34C1E74FF453
:101A940080743B46314602220120ADF808408DF89F
:101AA4000C904FF0FF34FEF765FFB2E7F0B585B058
:101AB4000E460546FEF70EFF044600200E2703AB34
:101AC40001A90422029001208DF80470FEF714FF8E
:101AD40003A902A8042201F006FD029BAEB923EA81
:101AE40005038E2502A9042203A8029301F0FBFC3E
:101AF40003AB01A9042201208DF80450FEF73AFF3C
:101B04002046FEF7F1FE05B0F0BD2B43E9E700BF28
:101B140030B5E02583B040F2F6348DF80350F0255B
:101B240001A90DF1030301220220ADF80440FEF7E0
:101B340021FF01A90DF1020301220220ADF80440A6
:101B44008DF80250FEF716FF03B030BDF0B5362411
:101B540085B002AB03A90222054601208DF80C4092
:101B6400FEF7CAFE0122B6269DF808408DF80C60E7
:101B740024F0030414438DF808404FF4FB7440F23E
:101B8400F64602AB03A91046FEF7F4FE03A90DF1D5
:101B9400090301220220ADF80C40FEF7EBFE0222FD
:101BA4000024ADF80C60AC2602AB03A91046ADF8D6
:101BB4000840FEF7DFFE02AB03A9022201208DF8E4
:101BC4000C60ADF808400226FEF7D4FE40F2EC604B
:101BD4004FF43B7703A90DF105030122ADF80C0086
:101BE40030468DF80540FEF7C5FE03A90DF1060346
:101BF40001223046ADF80C708DF80640FEF7BAFEAF
:101C0400ADF80C7040F2F63703A90DF10703012279
:101C140030468DF80760FEF7ADFE01AB012203A943
:101C240030468DF80440ADF80C70FEF7A3FE114B5E
:101C3400114A1B68A2FB03235B0B0393039B5A1EED
:101C440003922BB100BF039B5A1E0392002BF9D1C0
:101C5400F02040F2F6340DF103038DF8030002A9DD
:101C640001220220ADF80840FEF784FE0023AB7683
:101C740005B0F0BD000000205917B7D12DE9F04F91
:101C840000258BB009AB0191457485760583C0E9C5
:101C94000955C0E90B5507A90422044601200895FB
:101CA4008DF81C50FEF728FE042209A908A801F0AB
:101CB4001AFC089AB44B9A4240F018823626204601
:101CC400FFF744FF08AB022209A901208DF8246024
:101CD400FEF712FE01229DF82060B62726F00306C7
:101CE40016438DF820604FF4FB76104608AB09A923
:101CF4008DF82470FEF73EFE0DF12103012209A99F
:101D04000220ADF82460FEF735FE01220427A42644
:101D1400104603AB09A98DF824608DF80C70FEF70A
:101D240029FE02221E2640F2ED4B40F2ED684FF0F0
:101D3400030A40F66D29104608AB09A9ADF82060E6
:101D4400ADF824B0FEF716FE0DF11203012209A925
:101D540002208DF812A0ADF82480FEF70BFE0DF1E1
:101D64001303012209A90220ADF824808DF8135031
:101D7400FEF700FE09AB3A4607A902200895ADF824
:101D84001C90FEF7B9FD3A4609A908A801F0ABFB7F
:101D94000222089E1046C6F30723637209A908AB02
:101DA400ADF824B0ADF82070FEF7E4FD04AB0122D9
:101DB40009A902208DF810A0ADF82480FEF7DAFD01
:101DC4000DF11103012209A90220ADF824808DF838
:101DD4001150FEF7CFFD09AB3A4607A90220ADF832
:101DE4001C900895FEF788FD3A4609A908A801F059
:101DF4007AFB9DF82030002B40F0658102224FF0E1
:101E0400060C40F2ED4A40F2ED674FF0030900255D
:101E140040F66D28104608AB09A9ADF820C0ADF80E
:101E240024A0FEF7A7FD0DF11603012209A9022043
:101E34008DF81690ADF82470FEF79CFD0DF1170394
:101E4400012209A90220ADF824708DF81750FEF77D
:101E540091FD09AB042207A902200895ADF81C8066
:101E6400FEF74AFD042209A908A801F03CFB02225E
:101E74004FF0070C089B1046236009A908ABADF886
:101E840020C0ADF824A0FEF775FD05AB012209A919
:101E940002208DF81490ADF82470FEF76BFD0DF15F
:101EA4001503012209A90220ADF824708DF81550FC
:101EB400FEF760FD09AB07A9042202200895ADF8DE
:101EC4001C80FEF719FD042209A908A801F00BFBE8
:101ED400089B16F01F06636000F0CE80267446F05F
:101EE400600640F6EB650DF10E03012209A90220FC
:101EF4008DF80E60ADF82450FEF73CFD019BDB0726
:101F040040F1BE8036258DF82450B62508AB022258
:101F140009A90120FEF7F0FC012240F201318DF8FD
:101F240024504FF4FB75104608ABADF8201009A9F6
:101F3400FEF720FD0DF12103012209A90220ADF8CD
:101F44002450FEF717FD02224FF4004140F2ED65E4
:101F5400104608ABADF8201009A9ADF82450FEF7DF
:101F640009FD0A4B0A4A1B68A2FB03235B0B079378
:101F7400079B5A1E07926BB100BF079B5A1E07921C
:101F8400002BF9D106E000BF3001CADE00000020BA
:101F94005917B7D136258DF82450B62508AB02223F
:101FA40009A90120FEF7A8FC012200218DF8245084
:101FB4004FF4FB759DF82130104623F001038DF892
:101FC40021308DF8201008AB09A9FEF7D3FC0DF1E0
:101FD4002103012209A90220ADF82450FEF7CAFC0E
:101FE400238B43F4006323833625B62608AB0222F1
:101FF40009A901208DF82450FEF77EFC012200255A
:102004008DF824604FF4FB769DF82110104621F0E2
:10201400010108AB8DF8211009A98DF82050FEF7B5
:10202400A9FCADF8246040F6EC260DF12103012251
:1020340009A90220FEF79EFCADF8246004260DF1E8
:102044000F03012209A902208DF80F50FEF792FC1C
:102054000AA909AB01F8106D324601200895FEF774
:102064004BFC324609A908A801F03DFA2846089B12
:1020740063610BB0BDE8F08F10237026237430E742
:10208400022240F2765508AB09A91046ADF8245057
:10209400FEF732FC4FF6FF51022240F2F6559DF84E
:1020A40021009DF82030ADF8245003EB00231940A3
:1020B4000D0A8DF82010104608AB09A98DF821509F
:1020C400FEF758FC90E7022141F2ED2508460DF198
:1020D4000D038DF80D10012209A9ADF82450FEF767
:1020E40049FC238B43F48053238387E64FF0FF306E
:1020F400BFE700BF08B5124A136823F00703136053
:10210400104B984204D8136843F00103136008BDD0
:102114000D4B984205D80A4A136843F00203136032
:10212400F5E70A4B984205D8054A136843F00403BF
:102134001360ECE79F220649064801F0A3F9FEE785
:102144000020024000366E01006CDC0200A24A044A
:10215400584B00080849000810B5254A136843F095
:1021640001031360224B1B6813F0020FFAD0204BBB
:102174001A6822F0F8021A601A6842F080021A60A3
:102184005A6822F003025A601A6822F080721A60B8
:10219400174B1B6813F0007FFAD1154C636843F0AA
:1021A400020363601348FFF7A5FF636823F0F0039D
:1021B40063606368636063686360636843F4806357
:1021C4006360636823F480336360636823F470138B
:1021D4006360636843F460136360236843F080734F
:1021E4002360034B1B6813F0007FFAD010BD00BFBF
:1021F400001002400090D0030048704758010020AE
:10220400004204BF0146704710F000424FEA1252E8
:1022140042F4806242F01D0200D54042B0FA80F1DF
:102224008840521AC30A400503EB0251704700422A
:1022340004BF014670474FF4806242F01D02B0FAB9
:1022440080F18840521AC30A400503EB02517047DB
:1022540050EA010308BF704711F000424FEA1252DE
:1022640042F4806242F03D0240F104800023404287
:1022740063EB0101002902BF01460020203AB1F5B9
:10228400803F3FBF103A090441EA10410004B1F114
:10229400807F3FBF083A090241EA10610002B1F1B0
:1022A400805F3FBF043A090141EA1071000111F057
:1022B400404F01BF023A890041EA9071800009420F
:1022C4005FBF490041EAD0714000013A83054FEAFB
:1022D400D02040EA41504FEAD12108BF10F0010F4D
:1022E40001EB025198BF7047013041F10001704782
:1022F40050EA010308BF70475FF4806242F03D0278
:10230400FFF7B8BF4B005A0DA2F54072FF3A0FD445
:10231400D2F11F020EDD11EA410F4FEAC12141EA59
:10232400505040F0004020FA02F028BF404270476D
:1023340000207047004218BF43F0010313F5001F4B
:1023440088BF21F0004111F0004058BF6FF00040F9
:1023540070474A000ED2520DA2F54072FF3A09D4DA
:10236400D2F11F0208D4C90241EA505040F00040A3
:10237400D0407047002070476FF0000070474B005A
:102384001AD25A0DA2F54072FF3A15D4D2F13F0287
:1023940015DBC90241EA5051C00241F00041202A34
:1023A40022BF08460021B2F12002D141D04048406A
:1023B4009140D140484070470020002170476FF0A1
:1023C40000010846704781F0004183F0004383F028
:1023D4000043F0B491EA030F00F18E80841A71EB8C
:1023E400030603D212197341001BB1414FF07F461B
:1023F40046F4600616EA410F08BF62E0B6EB410FEF
:1024040098BF69E04FEA1154A4EB1357B14341F468
:10241400801116EA430F07BF00230022B34343F49D
:102424008013D7F1200634D303FA06F5401941F19D
:10243400000122FA07F5401923FA07F541EB0501DB
:1024440002FA06F211F4001F19D121F4801101EBF4
:102454000451F0BCB2F1004F08BF10EA500F50F124
:10246400000041F100014FF07F4343F46003B3EBFC
:10247400410F88BF7047090D0905002070474908BE
:102484005FEA30005FEA320228BF42F00102013401
:10249400DBE7203F402F19D223FA07F5401941F119
:1024A4000001C7F12006124218BF012203FA06F503
:1024B4002A43C7E711EA560F04BF00200021F0BCED
:1024C400704701F000410020F0BC704721F48011F6
:1024D40001EB0451F0BC7047004218BF41F0010108
:1024E400B6EB410F04BFF0BC70474FF0FE4141F41E
:1024F40078010020F0BC704783F00043841A71EB2C
:10250400030705D287F00047001BB94112197B412C
:102514005FF07F4656F4600616EA430FCAD0B6EB66
:10252400410F40F28C800C0DA4EB1357C90241EA11
:102534005051C00241F00041DB0243EA5253D2023F
:1025440043F00043D7F120065AD302FA06FCFA40BE
:1025540003FA06F52A43FB401CEA0C0F18BF42F0AD
:102564000102801A9941E30A6405640D11F0404F99
:102574002ED427D1002902BF01460020203C002987
:102584005BD0B1F5803F3FBF103C090441EA1041E4
:102594000004B1F1807F3FBF083C090241EA1061A9
:1025A4000002B1F1805F3FBF043C090141EA1071B0
:1025B400000111F0404F01BF023C890041EA9071D3
:1025C400800009425FBF013C490041EAD0714000EC
:1025D400002C11DD420521F00041C00A40EA4150BF
:1025E400C90A41EAC371460872F1004250F1000081
:1025F40051EB0451F0BC70470020D907F0BC704780
:10260400A7F12007202F0CD2C7F1200603FA06F504
:10261400FB402A4318BF43F00103C01A61F10001D3
:10262400A1E721F00041C00A40EA4150C90A01EB88
:102634000451F0BC704700200021F0BC70470042F8
:1026440018BF41F00101B6EB410F7FF44EAFB6EB7A
:10265400430F3FF44AAFF0BC70470000F0B5574F4A
:1026640081EA030517EA010E1EBF9EEA070F17EA67
:10267400030494EA070F64D04EEAD57EA64421EA07
:10268400470141F4801123EA470343F48013A1FB7B
:102694000247A0FB036536197D41A1FB034747F1BF
:1026A4000003A0FB0217F619654153F10003094228
:1026B40018BF46F001061427B3F5007F47F1000761
:1026C40034BF3F4A3F4ABEEB020E31D4C7F1200467
:1026D40003FA04F105FA04F025FA07F2114326FA85
:1026E40007F2104316FA04F421F480114FEA5E074E
:1026F40041EA47010AD0B4F1004F50F1000041F122
:102704000001B4F1004F08BF20F001002B4F1EEA76
:10271400070F10D041EACE71BE453CBFBDE8F04082
:1027240070472649002041EACE71BDE8F040704769
:102734001EEB020EF5D44FEACE710020BDE8F04046
:102744007047394204BF01F000410020004218BF25
:1027540041F001013B4204BF03F000430022124256
:1027640018BF43F0010307EA0304BC4218BF9EEA02
:10277400070F05D005F000410020BDE8F040704788
:1027840021F0004123F00043B9420FD8BB420DD8D9
:10279400002918BF002B09D005F0004141F0FE418B
:1027A40041F470010020BDE8F04070474FF0FE4155
:1027B40041F478010020BDE8F04070470000F07F4C
:1027C4000000F03F0000E03FF0B581EA030E0EF098
:1027D400004E814F17EA41051EBF95EA070F17EA1D
:1027E400430494EA070F00F0C5806D0DA5EB545720
:1027F40007F580674FF0004646EAC12444EA505486
:10280400C00246EAC32343EA5253D202801A9C41CF
:1028140004D20018644180185C41013F5B084FEA10
:1028240032020025002140F001004FF0070604E0C9
:10283400801A9C4136D340416441801A9C4136D36E
:1028440040416441801A9C4136D340416441801A1E
:102854009C4136D340416441801A9C4136D3404167
:102864006441013E17D0801A9C4136D340416441F3
:10287400801A9C4136D340416441801A9C4136D32E
:1028840040416441090201EB15612D02454020F0ED
:10289400FF004540CCE7801A9C4156D335E08018B0
:1028A4005C41C8D20018644180185C41C8D2001849
:1028B400644180185C41C8D20018644180185C41AE
:1028C400C8D20018644180185C41C8D20018644121
:1028D400013E17D080185C41C8D2001864418018AA
:1028E4005C41C8D20018644180185C41C8D2001809
:1028F4006441090201EB15612D02454020F0FF00FF
:102904004540CCE780185C411FD3420918BF44F00E
:102914000104490101EBD56100F01F0000EB4510F3
:1029240021F4801141EA0E01013041F100012442F9
:1029340008BF20F00100B7F5006F3EDA013F49DD22
:1029440001EB0751BDE8F0407047490101EBD56147
:1029540000F01F0000EB451021F4801141EA0E0144
:10296400B7F5006F29DA013F34DD01EB0751BDE80B
:10297400F0407047004218BF41F00101124218BFF5
:1029840043F00103B7EB410F2CBFB7EB430F1CE03F
:10299400B7EB410F04BFB7EB430F16E017EA410F43
:1029A40004BF17EA430F10E017EA410F12D017EAE9
:1029B400430F02D0B7EB430F0CD04EF0FE4141F46D
:1029C40070010020BDE8F04070474FF0FE4141F433
:1029D4007801F6E77146F4E70000E0FF4FF4001CCD
:1029E4001CEB410F98BF1CEB430F0CD850EA410C71
:1029F40008BF52EA430C08D0904208BF99420CBF6A
:102A040001200020704700207047012070474FF4D8
:102A1400001C1CEB410F98BF1CEB430F11D851EA6B
:102A2400030C50EA4C0C5CEA020C0CD004D2824237
:102A34008B4180410130704790429941804101307F
:102A4400704700207047012070474FF4001C1CEBB6
:102A5400410F98BF1CEB430F11D851EA030C50EA05
:102A64004C0C5CEA020C0CD004D290429941804197
:102A74000130704782428B41804101307047002011
:102A84007047012070474FF4001C1CEB410F98BFA6
:102A94001CEB430F11D851EA030C50EA4C0C5CEACE
:102AA400020C0AD004D290429941804140427047BE
:102AB40082428B41804140427047002070474FF46E
:102AC400001C1CEB410F98BF1CEB430F11D851EABB
:102AD400030C50EA4C0C5CEA020C0AD004D2824289
:102AE4008B4180414042704790429941804140422D
:102AF40070470020704701F00040704701284941A9
:102B040011F5001F0CBF0120002070470128494126
:102B140011F5001F8CBF0120002070472DE9F04102
:102B240000239046002206460F46FFF757FF30B1B8
:102B3400002330463946C8F80030BDE8F08127F05C
:102B4400FF4323F4E00343F07F55C7F30A5345F4EE
:102B54000015A3F2FE3330462946C8F80030BDE81C
:102B6400F08100BF2DE9F0410023904600220F467A
:102B74000446FFF733FFB8B940F2FE72C7F30A53B5
:102B84004344934214DCB8F1000F01DB002B0FDB4C
:102B9400002B09DD27F0FF4222F4E00242EA03554C
:102BA40020462946BDE8F08100200021BDE8F081DF
:102BB40000F05EFC0346034A0020126802491A60D2
:102BC400BDE8F0811C4C00080000F07F2DE9F843BB
:102BD40058A3D3E9002304460D46FFF770FF0028ED
:102BE40040F0968055A3D3E9002320462946FFF7F9
:102BF4004AFF18B100200021BDE8F8832046294689
:102C040000F0D0FB4FA3D3E90023FFF73CFF0028DB
:102C140040F08A800022002320462946FFF715FF52
:102C2400002600287ED0574F48A3D3E9002320462E
:102C34002946FFF713FD32463B46FFF7CAFBFFF771
:102C440061FB0646FFF7DCFA42A3D3E90023804682
:102C54008946FFF703FD02460B4620462946FFF747
:102C6400B6FB3EA3D3E9002304460D46404649463D
:102C7400FFF7F4FC02460B4620462946FFF7A9FB62
:102C840002460B4680468946FFF7E8FC35A3D3E9A4
:102C9400002304460D46FFF7E1FC34A3D3E90023E7
:102CA400FFF797FB22462B46FFF7D8FC0022364B52
:102CB400FFF78FFB42464B46FFF7D0FC2DA3D3E929
:102CC40000238046894620462946FFF7C7FC2BA3EC
:102CD400D3E90023FFF77DFB22462B46FFF7BEFC1A
:102CE4000022284BFFF775FB42464B46FFF76FFB6C
:102CF40002460B4640464946FFF766FD0136002270
:102D0400204BFFF766FB3246FFF72CFFBDE8F88344
:102D140000F0AEFB03461D4A002012681C491A60ED
:102D2400BDE8F8831B4F7FE700201B49BDE8F8830B
:102D3400AFF30080EF39FAFE422E8640D2BC7ADD32
:102D44002B2386C02342920CA19CC73B3CF92F9EA7
:102D54002C15F73F000000000030E63FA80C615C32
:102D640010D02B3F1CDC586FA452F13EE0F6B36F39
:102D7400E4707C3F0938DE6F993F403FB3514271A4
:102D84008E71AC3F0000E03F0000D03F1C4C0008B7
:102D94000000F07F0000E0BF0000F03F2DE9F04F9D
:102DA40083B004460D46FFF7B1FE002840F0BC8016
:102DB4000022002320462946FFF710FE002840F099
:102DC400BB800022002320462946FFF75CFE002832
:102DD40040F0AA802046294601AAFFF79FFE69A376
:102DE400D3E9002304460D46FFF769FE002840F0AE
:102DF400AD80019B204629465C1E0022734B019442
:102E0400FFF7E5FA4FF0FF3204460D46FFF7AAFE3E
:102E140000226E4BFFF7DDFA02460B462046294698
:102E2400FFF7D2FC06460F4632463B46304639464B
:102E3400FFF714FC55A3D3E9002304460D46FFF71E
:102E44000DFC54A3D3E90023FFF7C3FA53A3D3E93A
:102E540000238046894620462946FFF7B8FA2246D1
:102E64002B46FFF7FBFB4FA3D3E90023FFF7B1FA8F
:102E7400424682468B464B4620462946FFF7EEFBE8
:102E84004AA3D3E90023FFF7A2FA524680468946B3
:102E94005B4620462946FFF7E1FB46A3D3E900231E
:102EA400FFF795FA02460B4640464946FFF78CFC6D
:102EB40002460B4620462946FFF7D0FB32463B46E6
:102EC400FFF7CCFB804601988946FFF799F9424603
:102ED40004460D464B4630463946FFF77AFA37A387
:102EE400D3E9002306460F4620462946FFF7B6FBE2
:102EF40002460B4630463946FFF76BFA31A3D3E955
:102F0400002306460F4620462946FFF7A7FB024644
:102F14000B4630463946FFF75CFA02460B4610462C
:102F2400194603B0BDE8F08F294BD3E900231046BE
:102F3400194603B0BDE8F08F264AD2E9002303F115
:102F440000431046194603B0BDE8F08F224B00221F
:102F540020462946FFF73BFA4FF0FF3206460F465C
:102F640020462946FFF7FEFD0022184BFFF731FAF1
:102F740002460B4630463946FFF726FC06460F4606
:102F840052E700BFCD3B7F669EA0E63F29BD56B306
:102F94001544E9BFEDAF16204A6230400FCE674BAF
:102FA40080D541407E2615FA838073409AB5B312CA
:102FB400FF07504077900D9CFE0B8840A80C615C85
:102FC40010D02BBF000000000030E63F0000E03FBF
:102FD400F04B0008E84B00080000F03F2DE9F047F3
:102FE4000026002790463B46324605460C46FFF72E
:102FF400F5FC48BBC4F30A53A3F2FF32002AAE46E1
:1030040028DB332A2CDC4FF0FF39DFF864A0284694
:1030140029FA02F5C2F120090AFA09F9A3F21F43B9
:103024002AFA03F345EA09051D432AFA02F224EABF
:1030340002072EEA050632463B462146C8E900232C
:10304400FFF7C5F9BDE8F087C8E90067304639469F
:10305400BDE8F087C8E9006728462146BDE8F08747
:103064002A4623463046C8E900233946BDE8F0879E
:10307400FFFF0F002DE9D0439046994606460F46C0
:103084000022414B40464946FFF7A8FCE0BB002222
:10309400002330463946FFF7A1FC70B1404649464B
:1030A40000220023FFF7B3FCA0BB4FF000084FF051
:1030B400000940464946BDE8D08349464046FFF7EB
:1030C40021F90446FFF79CF842464B46FFF786FC7D
:1030D40068BB0022002330463946FFF7D4FCC8B948
:1030E4003046394600F05EF9FFF758FE02460B46BB
:1030F40040464946FFF7B2FAFFF768FD8046894625
:1031040040464946BDE8D083B046B94640464946A4
:10311400BDE8D08300F0ACF94FF000081B4BDFF89A
:1031240070901B68494603604046BDE8D083002C7C
:103134001BDB24D0E3074FF00008DFF84C9007D5E1
:103144004046494632463B46FFF788FA8046894660
:103154006410AED03B46324630463946FFF77EFA1D
:10316400E30706460F46F3D5EAE732463B4600201E
:103174000549FFF729FB644206460F46DAE74FF09C
:103184000008DFF8049094E70000F03F184C0008B2
:103194000000F0FF2DE9F0410022002304460D4613
:1031A400FFF71CFCE8BBC5F30A51A1F2FF3000286D
:1031B40022462B462CDB332833DC4FF0FF3CDFF870
:1031C40078E0C0F120082CFA00FCA1F21F410EFAAD
:1031D40008F82EFA01F14CEA080C4CEA010C2EFA1C
:1031E40000F003EA000702EA0C0625EA000524EAD7
:1031F4000C0456EA07032046294607D0002C75F133
:10320400000303DA00220A4BFFF7E1F8BDE8F0817E
:10321400002C73F100034FF0000006DB0021BDE831
:10322400F08120462946BDE8F0810249BDE8F081DD
:103234000000F03F0000F0BFFFFF0F002DE9F04356
:1032440016461F4683B004460D460022002330462E
:103254003946FFF7C3FBF8B920462946FFF756FC69
:1032640020B12046294603B0BDE8F08330463946F4
:10327400FFF74CFCE0B90022002320462946FFF763
:10328400ADFB0028EDD120462946FFF737FCA0B15D
:10329400424BD3E90001E6E700F0EAF80346404A6E
:1032A4003E491268D1E900011A6003B0BDE8F08319
:1032B4003046394603B0BDE8F08330463946FFF75F
:1032C4001DFC0028CDD13046394600F06BF8074686
:1032D4000E460B46024629462046FFF775FA6A4613
:1032E400FFF77CFEDDE9002338463146FFF7B6F9E7
:1032F40002460B4620462946FFF769F8002280461D
:103304008946002320462946FFF7D9FBF8B1384601
:10331400314642464B46FFF77AFBC0B33A46334642
:1033240040464946FFF753F804460D460022002361
:1033340020462946FFF7A7FB002892D020462946BD
:103344003A463346FFF745F804460D4689E73A46C0
:1033540006F1004340464946FFF759FB38B1404661
:1033640049463A463346FFF734F8804689460022F8
:10337400002340464946FFF7A2FB58B13A4633467C
:1033840040464946FFF723F804460D4669E744469C
:103394004D46CBE744464D4663E700BFF04B00087B
:1033A400184C000821F000417047000070B5041E5D
:1033B40006DB002C1BDD002600200E490E4D06E026
:1033C40064420126F8E764100835002C07DD14F088
:1033D400010FF8D0D5E90023FFF740F9F3E72EB148
:1033E40002460B4600200349FFF7EEF970BD0020AA
:1033F4000049FBE70000F03F204C000838B50446C4
:103404000846A26842B1236861685D1C8D4208BF0A
:1034140000208B4208D2D054E3682BB12168626843
:10342400914201D22146984723680133236038BD75
:1034340070B54C1E09D41646C5B229463046FFF76E
:10344400DDFF013CB4F1FF3FF7D170BD10F0100F68
:1034540009D108B500F40070002814BF30202020E2
:10346400FFF7E6FF08BD70470028B8BF4042704729
:1034740000B5FEF7C1FE024B18445DF804FB00BF23
:10348400080000000FB410B586B008AB53F8044B25
:103494000593002303936FF000430293084B0493B6
:1034A40000F0ADF8059A214601A800F01FF9044682
:1034B40000F0A6F8204606B0BDE8104004B07047FE
:1034C40035030008037853B159B10144034613F896
:1034D400012F12B18B42FAD10B46181A70470346DA
:1034E400FBE70346F9E7844640EA010313F0030FC0
:1034F40018D18446202A0BD32DE9F007B1E8F80748
:10350400A0E8F807A2F12002202AF7D2BDE8F007CC
:10351400042A07D351F8043B40F8043BA2F1040207
:10352400042AF7D2002A05D011F8013B00F8013B28
:10353400013AF9D1604670478446002A2DD010F034
:10354400030F04D000F8011B013A26D0F7E7C9B2F3
:1035540041EA012141EA0141202A12D3A2F12002C9
:103564002DE9F0030B460C460D460E460F468846E1
:103574008946A0E8FA03203AFBD2BDE8F0032032E2
:103584000BD0042A05D340F8041B043A05D0042ABE
:10359400F9D200F8011B013AFBD16046704700F1F3
:1035A400010110F0030F11D010F8012B002A23D0D1
:1035B40010F0030F0AD010F8012B002A1CD010F0D1
:1035C400030F03D010F8012B002A15D02DE9700049
:1035D4004FF001324FF0803350F8044BA4EB020556
:1035E40025EA04051D4000D1F6E7A0F1040070BCF3
:1035F40010F8012B002AFBD1A0EB010070477047A3
:10360400704753EA020C61D02DE9F04BB3FA83F50D
:103614001E0007BFB2FA82F502FA05F403FA05F4B4
:103624001646C5F120051EBF22FA05F73C43203596
:1036340056EA044C4FEA144418BF0134A3464FF031
:103644000009C846904271EB030C39D3094207BF05
:10365400B0FA80F700FA07F6B1FA81F701FA07F633
:10366400C7F120071EBF20FA07FC46EA0C062037E4
:10367400B6FBFBFC7F1B103F07F01F04C4F12006C0
:103684000CFA04F42CFA06F644BF34460026202F24
:10369400A4BF2646002454EA060C08BF012418EBF4
:1036A400040849EB0609A4FB027CC01B06FB02CC00
:1036B40004FB03CC71EB0C01904271EB030CC5D2FB
:1036C4000B46024649464046BDE8F08BB2FBF3F296
:1036D40010B504460146172001F0B2F800280CBFCB
:1036E40020464FF0FF3010BD704770472DE9F04F72
:1036F40095B0039006910B9200230360069C14F886
:10370400011B002901F01580252904D00398FFF737
:1037140075FE0694F2E7002602E046F040061C46D9
:10372400234613F8010BA0F120023E2A00F29480F4
:1037340001A151F822F000BF1F3700085D380008CE
:103744005D380008393800085D3800085D38000825
:103754005D3800083F3800085D3800085D3800080F
:103764005D3800084B3800085D38000851380008FF
:103774005D3800085D380008573800085D380008D7
:103784005D3800085D3800085D3800085D380008C1
:103794005D3800085D3800085D3800085D380008B1
:1037A4005D3800085D3800085D3800085D380008A1
:1037B4005D3800085D3800085D3800085D38000891
:1037C4005D3800085D3800085D3800085D38000881
:1037D4005D3800085D3800085D3800085D38000871
:1037E4005D3800085D3800085D3800085D38000861
:1037F4005D3800085D3800085D3800085D38000851
:103804005D3800085D3800085D3800085D38000840
:103814005D3800085D3800085D3800085D38000830
:103824005D3800085D3800085D3800085D38000820
:103834004538000846F0800671E746F400466EE716
:1038440046F480566BE746F0200668E746F010061B
:1038540065E746F4007662E72A2822D10B9A111D07
:103864000B911568002DBCBF6D4246F01006187808
:10387400A31C25EAE57207922E2827D00025742878
:1038840048D07A2846D06A2800F0C5806C2800F019
:10389400C8804C2800F0D380682800F0E0800693AC
:1038A4003BE0A0F13002D2B2092A88BF0025E0D85B
:1038B400002505EB8505303800EB450513F8010BB1
:1038C400A0F13002D2B2092AF3D9D2E718782A2813
:1038D4000AD10B9A111D0B91156858780233002DEB
:1038E400CDDB46F48076CAE70133A0F13002D2B2D0
:1038F400092A88BF0025F4D8002505EB8505303852
:1039040000EB450513F8010BA0F13002D2B2092AED
:10391400F3D9E4E713F8010B0693782800F29280B8
:10392400DFE810F0150790009000900090009000E0
:103934009000900090009000900090009000900003
:1039440090009000900090009000900090009000F3
:1039540090009000900090009000900090009000E3
:103964009000900090009000900090009000AB00B8
:1039740090009000900090009000900090009000C3
:1039840090009000900090009000900090009000B3
:1039940090009000900090009000900090009000A3
:1039A40090009000900090009000900090003602EB
:1039B40051025602900090009000900090009000F8
:1039C4009000900090009000900090009000900073
:1039D40090009000370190009000900090009000BB
:1039E40090009000900090009000B0006E013802AA
:1039F4005302580290006E019000900090009000D5
:103A0400C3005801130190009000DC00900066018F
:103A140090009000390146F0020613F8010B06935A
:103A24007BE718786C2804D00133069346F001062E
:103A340073E746F002069A1C069258786DE746F042
:103A440001060693954B1C68002C3FF457AE0BAB54
:103A540001930095079B32460399A0474EE61878D8
:103A6400682804D00133069346F0040655E746F06F
:103A740008069A1C069258784FE725210398FFF709
:103A8400BDFC3BE60B9B1A1D0B921C78079B03F1B4
:103A9400FF39039D2A4649463046FFF7D7FC2146A5
:103AA4002846FFF7ABFC344645E016F0080F07D074
:103AB400039B1A680B9B191D0B911B681A701DE65A
:103AC40016F0020F0B9B03F104020B921B68039A7E
:103AD40012681A601CBF00225A600FE60B9B1A1D65
:103AE4000B921B6804930BB96D4B049326F400747A
:103AF40016F4807F00F04D8229460498FFF7E2FC1B
:103B04000546079BA3EB0509039A49462046FFF7A0
:103B14009DFC05F1FF3A75B1DDE9046733460136D2
:103B240019780398FFF76AFC0AF1FF3ABAF1FF3FEC
:103B3400F4D1CDE9046714F0100F3FF4DFAD039A1C
:103B440049462020FFF774FCD8E50B9B1A1D0B9205
:103B54001868002102460B46CDE9042306F08003D1
:103B64008B420CBF89464FF0230946F48078082520
:103B7400DDE90401024650EA010400F0A6850DAE19
:103B8400002408F40057DFF81CE1DFF81CC100F042
:103B94006ABD46F4005616F0800F18D043F2780937
:103BA40043F25803782818BF994616F4807F35D01D
:103BB40026F4007818F0020F78D10B990B1D0B93A3
:103BC4000A68002316461F46CDE9046779E04FF0E2
:103BD4000009EAE706F08003002B0CBF4FF0000950
:103BE4004FF0300916F4807F1AD026F40078E1E70C
:103BF40016F4807F16D026F400784FF00009D9E738
:103C040046F4804816F0020F10D10B9B1A1D0B923C
:103C14001B681946DA17CDE9041212E0B046C9E769
:103C2400B046C7E7B0464FF00009C3E70B9B073324
:103C340023F0070303F108020B92D3E90034CDE922
:103C4400043416F0040F13D0BDF8102013B2DC179F
:103C5400CDE90434DDE90434002B74F1000211DAF7
:103C64005B4264EB4404CDE904344FF02D0932E0A7
:103C740016F0080FEED09DF81040002122460B46A6
:103C8400CDE9042316F0200F7FD106F04006002E64
:103C94000CBF4FF000094FF020091CE05401002034
:103CA400904C0008F84B0008084C00080B9B0733A5
:103CB40023F0070303F108020B92D3E90034CDE9A2
:103CC400043418F0040F55D0BDF810200023164614
:103CD4001F46CDE9046718F4807F00F0708428F44F
:103CE40000785838202800F2EE8401A353F820F01D
:103CF400753B0008CB460008CB460008CB460008BD
:103D0400CB460008CB460008CB460008CB4600084B
:103D1400CB460008CB460008CB460008CB4600083B
:103D24002D460008CB460008CB460008CB460008C9
:103D3400CB4600082D460008CB460008CB460008B9
:103D4400CB460008CB460008CB460008C94500080E
:103D5400753B0008CB460008CB460008CB4600085C
:103D6400CB4600082D460008CB460008CB46000889
:103D7400753B000818F0080FADD09DF81020002303
:103D840016461F46CDE90467A5E74FF02B09A2E7C5
:103D940046F4005646F480660B9B073323F0070372
:103DA40003F108020B92D3E90089CDE9048916F4E2
:103DB400807F12D095B906F44065B5F5406F14BF05
:103DC400002501250AE046F4005646F40066E3E7C0
:103DD40046F4005646F44066DEE70625404649466A
:103DE400FEF78CFE002840F0B98040464946FEF7B5
:103DF4008DFE0A90002840F0DA8040464946FEF7DE
:103E04007AFE50B146F06006CDF8208009F10043F7
:103E14000993DDE90834CDE90434DDE9047813AA13
:103E240038464146FEF77AFE139B03EB4303B74A39
:103E340082FB0312DB17C3EBA203139300220023BC
:103E440038464146FEF7CAFD002800F0BE8006F45D
:103E54004064B4F5806F0AD0B4F5406F40F0D1816E
:103E6400139BAB4203DA13F1040F80F2CA81139857
:103E7400B0F59A7F40F0C580A2A3D3E90023DDE921
:103E84000401FEF7A1FCCDE90401DDE90489002267
:103E9400002340464946FEF7A1FD00283FD1404695
:103EA4004946FEF72BFE002840F0B7800022984BCD
:103EB40040464946FEF7C9FD90B1139F01370022E1
:103EC400934B40464946FEF77FFC804689460022D4
:103ED4008F4BFEF7BAFD0028F0D11397CDE9048982
:103EE400DDE9048900228B4B40464946FEF7CBFDB1
:103EF400A8B1139F013FBB460022854B404649466B
:103F0400FEF7ACFB80468946013F0022814BFEF759
:103F1400BAFD0028EFD1CDF84CB0CDE90489002DCD
:103F240000F01E84B4F5406F00F096806842FFF7FD
:103F34003DFA0022784BFEF791FBDDE90423FEF7FE
:103F440048FA80468946CDE904890022704BFEF781
:103F54007CFD002800F0288400F018BC0022002317
:103F640040464946FEF78FFDC0B906F400526B4B3C
:103F74006B49002A08BF0B4616F0200F08BF013317
:103F8400049326F48076049B002B3FF4ADAD26F415
:103F940000740498FFF703FB0546B2E506F40053EA
:103FA4006049614A002B08BF11460491E9E706F411
:103FB40000515E4A5E4B002908BF1A46049226F45B
:103FC400807693E5139B0133139313980130FFF725
:103FD400EDF902460B46DDE90401FEF770FD002809
:103FE400F0D11398FFF7E2F902460B46DDE904012C
:103FF400FEF749FD00283FF42AAF139B013B1393BE
:10400400EFE74042FFF7D2F902460B46DDE904012F
:10401400FEF724FBCDE9040137E7002200234046E4
:104024004946FEF730FD70B906F400523B4B3C495B
:10403400002A08BF0B4616F0200F08BF0133049373
:1040440026F480769FE706F400533649364A002B5F
:1040540008BF11460491F3E76C1EC5F10100FFF798
:10406400A5F900222C4BFEF7F9FADDE90423FEF74B
:10407400B0F980468946CDE904890022244BFEF735
:10408400E4FC08B1254681E325468AE3102DA8BF48
:104094001025DDE904892846FFF788F902460B4616
:1040A40040464946FEF7DAFAFEF769F98046894642
:1040B40058EA09030AD126F40068079BA3F105090D
:1040C40016F0800340F07E830A937DE30A220023E6
:1040D400FFF797FA134340F06D83013D0A22002352
:1040E40040464946FFF78DFA80468946002DE2D0C6
:1040F4000A220023FFF785FA1343EED05AE300BFE8
:10410400AFF30080A0C8EB85F3CCE17F67666666F9
:10411400000024400000F03F0000E03F784C00081D
:10412400804C0008684C0008704C0008884C00085B
:104134008C4C00084FF0010B0A9B23EAE3730A93AB
:1041440016F0600F18BF09F1FF391398FFF78CF9C7
:104154006328C8BF09F1FF39DDE9046730463946F1
:10416400FEF70DF904460D46FEF7C2F802460B466B
:1041740030463946FEF72BF9CDE9040129EAE97AFC
:1041840018F4047F00F0F48018F0200F00F0FF8092
:1041940008F04003002B14BF2D212B210398FFF7B7
:1041A4002DF918F0100F00F0FB80BA4E0BF10057F8
:1041B400013F06EBC7074FF0300B07E10022B64B77
:1041C400DDE90401FEF74AFACDE90401013C139448
:1041D40009F1FF394FF0020BAEE70022AF4BDDE9E6
:1041E4000401FEF73BFACDE90401023C1394A9F162
:1041F40002094FF0030B9FE7D3469DE74FF0010BF5
:104204009EE716F4806F2DD0139B0E2B2BDC01330D
:10421400A5EB03094A46102AA8BF10220A9216F0F9
:10422400800F20D1AB421ED014462046FFF7BEF8C3
:1042340002460B46DDE90401FEF710FA0022984B12
:10424400FEF7C7F8FEF7A6FF0022934BFEF7F6FF32
:1042540000220023FEF7C2FB002867D0013CE4D112
:104264000A9400E00A9526F48068139B0A9A504247
:10427400A3F10F028242C8BFA3F11000FFF796F822
:104284004FF0FF32FEF76EFC02460B46DDE90401F7
:10429400FEF79FF8CDE90401DDE904AB1398013082
:1042A400FFF784F802460B4650465946FEF7CDFB0D
:1042B40010B1139B01331393139800284EDB10287D
:1042C40036DC50465946FEF75AF804460D46FEF7CA
:1042D4000FF802460B4650465946FEF778F8CDE9EA
:1042E400040100231393002D08BF0A2C3DD36D4B0A
:1042F4004FF0010B0BF1010BF3E902018D4208BFF2
:104304008442F7D20A9A02EB0B09139B9944079B48
:10431400A3EB090906F08003134318BF09F1FF3921
:1043240016F0600F18BF09F1FF3927E70A949AE7DE
:10433400A0F110031393C0F11000FFF737F8024601
:104344000B4650465946FEF789F9FEF718F804461D
:104354000D4600220023CDE90423C4E70023139370
:10436400002400254FF0010BCCE74FF0010BC9E707
:10437400B9F1000F7FF708AF20265746013F3146B9
:104384000398FFF73BF8002FF8D1BA46FCE618F083
:10439400400F3FF406AF20210398FFF72FF800E702
:1043A400BAF1000F3FF401AF30265746013F3146C2
:1043B4000398FFF723F8002FF8D1BA46F5E65946DB
:1043C4000398FFF71BF8BE4212D04F46B94679E86E
:1043D40002239D4208BF9442F1D359460131C9B228
:1043E400A41A65EB03059D4208BF9442F6D2E7E7A1
:1043F40018F400645AD10A9B002B65D118F0800F81
:1044040040F0A88118F4806F33D008F40058B8F154
:10441400000F14BF45216521039C2046FEF7EEFFE3
:10442400139B002BC0F2AD802B210398FEF7E6FF0F
:104434001399632900F3AD8013991B4C84FB01325B
:10444400C917C1EBA2013031C9B2039D2846FEF75A
:10445400D5FF139B84FB0324D917C1EBA40101EB03
:104464008101A3EB410303F13001C9B22846FEF7F1
:10447400C5FFBAF1000F3FF441A920245546013D80
:1044840021460398FEF7BAFF002DF8D1AA46FFF79C
:1044940035B900BF984C0008000024400000594082
:1044A4000000E03FA04C000867666666139B002B83
:1044B400A1DD3025013B139329460398FEF79EFFA7
:1044C400139B002BF6DC96E72E210398FEF796FF4C
:1044D4000A9F102FA8BF102727EAE7770A9BA3EBB0
:1044E4000709BCB1DDE904451398381AFEF75EFFED
:1044F40002460B4620462946FEF7B0F8FDF73FFF7B
:1045040004460D466FB307F10057013FBD4B03EB63
:10451400C70B10E0DDE904453846FEF747FF0246C5
:104524000B4620462946FEF799F8FDF728FF044676
:104534000D46E7E7BB465F4677E802239D4208BF86
:1045440094421CD330210131C9B2A41A65EB03058E
:104554009D4208BF9442F6D20398FEF74FFFB3453D
:10456400E8D1B9F1000F3FF44DAF30244D46013D81
:1045740021460398FEF742FF002DF8D142E730218F
:10458400EAE72D212046FEF739FF139B5B42139384
:104594004EE79D4C84FB0132C917C1EB62113031E7
:1045A400C9B20398FEF72AFF139A84FB0234D31787
:1045B400C3EB6413642101FB132313933CE701252C
:1045C400FFF78FBBDDE9040102460B46014308BF38
:1045D400002410D00DA8002402F00701303100F8A7
:1045E400011B0134D10841EA4371DE080A4633460F
:1045F40052EA0301F0D12D1B25EAE575079B5E1BEA
:10460400361BB9F1FF0F62D9023E18F4007F00F0A7
:1046140007814FEA19210398FEF7F0FE09F07F01A4
:104624000398FEF7EBFE5AE0DDE904341E46274604
:10463400234308BF0024DED0002408F4004B5B466B
:10464400AB461D462FE002F00F021EF8023006F8BA
:10465400013B0134020942EA01720B091046194672
:1046640052EA030AC7D0002FEDD002F00F021CF863
:104674000230ECE714AB03EB040A0A2200233046B1
:104684003946FEF7BEFF30320AF81C2C01340A22E8
:10469400002330463946FEF7B4FF002F08BF0A2E28
:1046A4000FD306460F46002DE4D004F00303032B7A
:1046B400E0D114AB23444FF02C0203F81C2C01343A
:1046C400D8E75D4697E7002495E7002493E7B9F11E
:1046D400000F40F0A18018F4007F00F0A180039F38
:1046E4003A4631464046FEF7B1FE3A462946302066
:1046F400FEF79EFEB4F1010A10D40DAF54463C44BB
:1047040002E0002685E72C46254615F80119039892
:10471400FEF774FEBC42F6D14FF0FF3A18F0100FCA
:104724003EF4ECAF039A31462020FEF781FEFEF7FB
:10473400E5BF03998B682BB10A6849688A423CBF7C
:1047440000219954039B186815B0BDE8F08F4FF011
:10475400FF30F9E72E210398FEF750FE0A9FBDE6CD
:104764000020FEF723FE0022284BFDF777FFDDE94A
:104774000423FDF72EFE80468946CDE904890022F4
:10478400234BFEF762F900283FF495AC139B0133E9
:10479400139300221E4B40464946FEF715F8CDE917
:1047A4000401002D3FF487AC06F40863B3F5006FF1
:1047B4003FF46CAC26F4006805F10509079BA3EBF4
:1047C40009090A9509F1FF3916F4805F3FF416AD23
:1047D400139C104B83FB0423A3EBE47303EB43030D
:1047E400E31A0233042B3FF607AD01A252F823F07B
:1047F400C1410008DF41000839410008C1410008F7
:10480400DF410008984C00081F85EB510000E03F91
:104814000000244056555555013E18F4007F0AD136
:10482400039A31464046FEF711FEB9F1FF0F98BFD7
:1048340000263FF666AFB9F1000F3FF450AFEDE646
:1048440038B504460D46FEF74FFF074B1D6044F094
:104854008004064B1C601A461368002BFCD1FEF73B
:1048640044FF014B186838BD5C010020580100204A
:1048740048617264206661756C740A00433A5C5541
:10488400736572735C4D53495C4465736B746F70EC
:104894005C5345503235305C5345503235305F728D
:1048A400656C6561736556345C5345503235305FD1
:1048B40072656C656173655C7365703230305F314D
:1048C40039665F72656C656173655C5465737462A7
:1048D400656E63685C556E6974546573745C3135D8
:1048E4002E426561636F6E5F4E4F535B756E6974E4
:1048F400746573745D5C5372635C4253505C4253E1
:10490400502E63004572726F72212048616C7420CE
:1049140061742025732025640D0A00000000000046
:1049240000000000010203040607080953797374A8
:10493400656D20436C6F636B20537065656420253F
:104944006420487A0D0A0000494E495420464149E2
:104954004C45440D0A000000433A5C55736572737C
:104964005C4D53495C4465736B746F705C53455084
:104974003235305C5345503235305F72656C656159
:10498400736556345C5345503235305F72656C65DF
:104994006173655C7365703230305F3139665F72A4
:1049A400656C656173655C5465737462656E636898
:1049B4005C556E6974546573745C31352E4265615F
:1049C400636F6E5F4E4F535B756E69747465737479
:1049D4005D5C5372635C6D61696E2E630000000060
:1049E4005350492053706565643A2025640D0A00CC
:1049F4004576656E742054696D656F75740D0A0093
:104A04005478204572726F722E204F66662054725D
:104A1400780D0A00433A5C55736572735C4D5349D3
:104A24005C4465736B746F705C5345503235305C15
:104A34005345503235305F72656C65617365563429
:104A44005C5345503235305F72656C656173655CEB
:104A54007365703230305F3139665F72656C6561E1
:104A640073655C5465737462656E63685C556E69E6
:104A740074546573745C31352E426561636F6E5F87
:104A84004E4F535B756E6974746573745D5C5372D9
:104A9400635C4253505C5350494D2E630000000048
:104AA40007A9022570889B88000001020304000501
:104AB4002D001A3152001A339A001A351D011A3783
:104AC4006B003B31BE003B335E013B3596023B3706
:104AD40087008D00401008000704000908054008FD
:104AE40009104008080540081D0400081D040008BA
:104AF4001E265626BEBE0000000098599859EA5159
:104B04008E421E45142E0080EA51F4283233E03AD6
:104B1400703DE03AC235842BC2353233C235C235DA
:104B2400AE47E03A5038A23050380000D8BC0000FC
:104B34000A0016000100060001000200405C0000AB
:104B4400A05C0400C06C0800805C0400E03F1E0010
:104B5400E07D1E00433A5C55736572735C4D5349A6
:104B64005C4465736B746F705C5345503235305CD4
:104B74005345503235305F72656C656173655634E8
:104B84005C5345503235305F72656C656173655CAA
:104B94007365703230305F3139665F72656C6561A0
:104BA40073655C5465737462656E63685C556E69A5
:104BB40074546573745C31352E426561636F6E5F46
:104BC4004E4F535B756E6974746573745D5C537298
:104BD400635C4253505C436C6F636B5C436C6F6308
:104BE4006B2E6300000000000000F07F0000000056
:104BF4000000F87F3031323334353637383961626A
:104C0400636465663031323334353637383941427E
:104C1400434445462100000022000000000000003B
:104C24000000244000000000000059400000000083
:104C34000088C3400000000084D797410080E0371B
:104C440079C34143176E05B5B5B89346F5F93FE905
:104C5400034F384D321D30F94877825A3CBF737F79
:104C6400DD4F15752D494E46000000002D696E6616
:104C7400000000002B494E46000000002B696E66C0
:104C8400000000004E414E006E616E00286E756C8F
:104C94006C29000001000000000000000A00000070
:104CA400000000006400000000000000E8030000B1
:104CB400000000001027000000000000A086010092
:104CC4000000000040420F000000000080969800A1
:104CD4000000000000E1F5050000000000CA9A3B56
:104CE4000000000000E40B540200000000E87648D5
:104CF400170000000010A5D4E800000000A0724EC8
:104D04001809000000407A10F35A00000080C6A47D
:104D14007E8D03000000C16FF286230000008A5DCF
:104D240078456301000064A7B3B6E00D0000E8898C
:044D34000423C78A03
:0F4D380000A24A040302140009090002008100CE
:0400000508000131BD
:00000001FF
