:020000040800F2
:10000000004E002031010008590100086D0400086D
:1000100000000000000000000000000000000000E0
:100020000000000000000000000000005D0100086A
:1000300000000000000000005F01000861010008EE
:100040006501000867010008690100086B010008EC
:100050006D0100086F010008A1040008AD0400084C
:10006000B9040008C5040008D10400087B01000899
:100070007D0100087F01000881010008830100085C
:100080008501000887010008890100088B0100082C
:100090008D0100088F01000891010008DD040008AF
:1000A0009501000897010008990100089B010008CC
:1000B0009D0100089F010008A1010008A30100089C
:1000C000A5010008A7010008A90100087D0C00088F
:1000D000090D0008AF010008B1010008B3010008D4
:1000E000FD040008B7010008B9010008BB010008C1
:1000F000BD010008BF010008C1010008C3010008DC
:10010000C5010008C7010008C9010008CB010008AB
:10011000CD010008CF010008D1010008D30100087B
:10012000D5010008D7010008D9010008DB0100084B
:10013000054820F0070085460448804704480549E3
:10014000016000F04BB800000050002009050008D5
:1001500008ED00E000000008FEE7FEE7FEE7FEE72E
:10016000FEE7FEE7FEE7FEE7FEE7FEE7FEE7FEE767
:10017000FEE7FEE7FEE7FEE7FEE7FEE7FEE7FEE757
:10018000FEE7FEE7FEE7FEE7FEE7FEE7FEE7FEE747
:10019000FEE7FEE7FEE7FEE7FEE7FEE7FEE7FEE737
:1001A000FEE7FEE7FEE7FEE7FEE7FEE7FEE7FEE727
:1001B000FEE7FEE7FEE7FEE7FEE7FEE7FEE7FEE717
:1001C000FEE7FEE7FEE7FEE7FEE7FEE7FEE7FEE707
:1001D000FEE7FEE7FEE7FEE7FEE7FEE735493648C5
:1001E0000A1A02D0072291438D46344934480A1A2C
:1001F00006D00722914381F30988022282F31488F2
:1002000030483149314A00F043F831483149324AE7
:1002100000F03EF831483249324A00F039F83248AD
:100220003249334A00F034F832483349334A00F057
:100230002FF833483349344A00F02AF83348344918
:10024000344A00F025F834483449002200F02BF8F5
:1002500033483449002200F026F833483349091A5C
:10026000082903DB00220260043001601F48204996
:10027000884205D00268043003B4904703BCF7E716
:1002800000208646EC4600200021294A9047FEE7E0
:10029000884207D0521A05D0037801300B70013123
:1002A000013AF9D17047884202D002700130FAE772
:1002B00070470000004E0020004A0020005000203F
:1002C000004E002038490008000000200F000020E8
:1002D000340300083403000840450008384900088A
:1002E00000000020000000204045000840450008B4
:1002F00040450008404500084045000840450008CA
:1003000040450008404500083849000848490008B1
:100310005801002058010020100000205401002046
:1003200054010020580100205801002058020020EC
:04033000A908000810
:1003340010B504460A2803D0204603F007F810BD80
:100344000D2003F003F8F7E7394A936943F4036394
:1003540043F00D039361936943F480539361A2F5D1
:100364008232136843F440131360136823F4400388
:100374001360304B596841F030015960596821F0DD
:10038400C0015960A3F50063196841F44031196054
:10039400196821F440211960196841F44011196069
:1003A400196821F480011960196841F40001196089
:1003B400196841F040711960196821F08061196071
:1003C400196841F000611960196841F040511960E1
:1003D400196821F080411960196841F000411960E1
:1003E400536823F030035360536823F0C003536011
:1003F400536843F0800353600F4B1A6922F0F002F4
:100404001A611A6942F010021A6103F580635A688E
:1004140042F400725A601A6842F400721A609A68D0
:1004240042F400729A60DA6822F40072DA6070476B
:1004340000100240001001400000014008B501F026
:1004440091FD00F085F8FFF77FFF064AD36823F497
:10045400E0631B041B0C43F0BF6343F40033D3601D
:1004640008BD00BF00ED00E008B5044802F048FEF6
:100474005B220349034802F043FEFEE740450008BF
:100484004C450008C4450008034BA02283F81723F9
:100494004FF400021A60704700E100E0014B5B6911
:1004A400704700BF00040140014B5B69704700BF07
:1004B40000040140014B5B69704700BF0004014028
:1004C400014B5B69704700BF00040140014B5B694D
:1004D400704700BF0004014008B5064B586910F48A
:1004E400007F00D108BD4FF400725A6100F078FA21
:1004F400F8E700BF00040140014B5B69704700BF8F
:10050400000401400F4B1A6842F001021A60596856
:100514000D4A0A405A601A6822F0847222F480322A
:100524001A601A6822F480221A605A6822F4FE02C1
:100534005A604FF41F029A60044B4FF000629A60B5
:10054400704700BF001002400000FFF800ED00E01B
:100554001F4B5B6803F00C03042B14D0082B16D03C
:100564001BB11C4B1C4A1A6002E01A4B1A4A1A604F
:10057400174B5B68C3F30313184AD15C154A13681D
:10058400CB4013607047134B134A1A60F0E7104ACC
:1005940053685268C3F38343023312F4803F05D196
:1005A4000F4A02FB03F30B4A1360E1E7084A52685F
:1005B40012F4003F05D00A4A02FB03F3054A136014
:1005C400D6E7054A02FB03F3024A1360D0E700BFF3
:1005D400001002400000002000127A00DC450008F0
:1005E40000093D00014B01221A60704724010020DC
:1005F40010B582B0084C0823019302230093012311
:10060400064A1946204600F0F1F90549204600F053
:1006140011FB02B010BD00BF3000002040420F00AB
:10062400E905000800B585B000220023CDE90023C8
:1006340002A800F063FE052202A9684602F091FDBB
:10064400DDE9000105B05DF804FB0000F8B5FFF733
:10065400CFFF814B4FF480721A61804C204601F029
:100664007BF97F4B48F641021A804222DA7043221A
:100674001A71E1225A725022DA7133221A72552207
:100684005A7145229A7100229A700121204601F084
:10069400FBF9B0F1FF3F08D1724802F031FDD122DD
:1006A4007149724802F02CFDFEE77149714800F06F
:1006B40055FA0146704802F023FD032000F0F2FED3
:1006C400664C6E49204600F063FB654DB5F80300A7
:1006D40000F0B8FEB5F8050000F0D2FE082120466F
:1006E40000F078FE0121664801F0E6F844F2340097
:1006F40000F06AFD44F2340000F07CFD0021204645
:1007040001F064F80024254610E05E4B4FF47A7241
:100714001A60524E304600F0DFFF01F0FFF800216E
:10072400304601F053F8584802F0EAFC574B1B6876
:1007340023B9544B1B68002BF8D1E6E70021534B37
:1007440019600F2000F0E8FD514B186010F0010F04
:10075400ECD010F4804F04D10021404801F036F869
:10076400E4E74FF4804200210F2000F003FE002153
:10077400102000F0D1FDC0F3090600220C214548E9
:1007840000F090FD002C0CBF012400240BD1424B3F
:100794004FF400625A610C2E0AD0304800F09CFFDE
:1007A40001F0BCF8D8E73C4B4FF400621A61F2E761
:1007B400FFF738FF394F3860796010F1FA7641F16C
:1007C4000001300A40EA016000F010FF26F4FF73D4
:1007D40023F001033A682249C1F80A2003F5804353
:1007E4003433C1F80E308D700022142000F014FD53
:1007F4001A4E012300221421304600F037FD012156
:10080400304600F009FF18B1144800F065FFA3E773
:100814001C4B64221A601D4B1B683BB9194B1B68A7
:10082400002BF8D11E4802F06BFCF4E70026174BAE
:100834001E6031460F2000F06FFD154F38604FF0F9
:10084400FF3231460F2000F095FD3B6813F0800F16
:10085400DAD00135EDB2D7E700080140700000207E
:10086400100000200846000818460008C445000887
:1008740080C3C901300000208C4600080400002019
:1008840080D00504380100209C460008280100207F
:100894003C01002024000020000C01403001002015
:1008A400AC46000808B5FFF7C9FD074B19680748AF
:1008B40002F026FC14220021054802F07BFCFFF71D
:1008C400E3FDFFF7C3FE00BF00000020EC45000875
:1008D40010000020034B4FF40002C3F880200120D5
:1008E400704700BF00E100E018B1024B4FF4000272
:1008F4001A60704700E100E02DE9F04104460F461C
:1009040016469846164D40220021284602F052FC15
:1009140022463946284602F024FC124F4022002188
:10092400384602F047FC104B10225A61A3193A468C
:1009340029460E4800F080F90D4B1B68002BFBD0B4
:1009440000250B4B1D60324606492144404602F007
:1009540008FC054B10221A612846BDE8F08100BF4F
:10096400E4000020A4000020000801403000002022
:10097400240100202DE9F0410546884616461F460D
:10098400124C40220021204602F014FC2A46414623
:10099400204602F0E6FB32463946601902F0E1FBDC
:1009A4000B4B10225A61AB190A4A21460A4800F03F
:1009B40043F90A4B1B68002BFBD00020074B18603F
:1009C400034B10221A61BDE8F08100BFE40000204F
:1009D40000080140A4000020300000202401002071
:1009E400014B01221A607047280100202DE9F041D3
:1009F40001299DF818709DF81C5063D002295CD120
:100A040010264FF024084FF0010C4E4CDFF848E15B
:100A14000139C0E900484EF821002168C0F808C037
:100A240021F040012160002B58D0012B51D1022F1D
:100A34004FF0050E4FF0040356D0032F56D1424B0E
:100A44004249BCF1010F1B684F6854D0BF040DD557
:100A5400496801F46051B1F5205F6AD064D9B1F5F9
:100A6400405F68D0B1F5605F00D11B1193FBF2F2D7
:100A7400002300E00B4602EBD272521003F1010195
:100A8400F8D1DB0003F0380343EA0E032360636804
:100A9400082D43F00403636040D0102D3BD123683C
:100AA40043F400632360C5602368294943F040038D
:100AB400236010464E60BDE8F0814FF0FF321046CF
:100AC400BDE8F08108264FF023084FF0020C214CBA
:100AD4009CE76FF001021046BDE8F081022F4FF051
:100AE400070E4FF00603A8D19E46A8E76FF0020256
:100AF4001046BDE8F0817F05B8D5496801F4E0618E
:100B0400B1F5A06F15D018D9B1F5C06F13D0B1F5F8
:100B1400E06FAAD0AAE76FF00302D0E7236823F4BA
:100B240000632360C560BFE7B1F5005F9ED15B1031
:100B34009CE79B109AE7DB1098E7B1F5806FF6D03D
:100B440094E700BF0038004000000020001002407D
:100B540000E100E00030014040010020F8B50468E5
:100B640082682368314823F0400305682360304BD2
:100B7400012A5A683CD092042BD495FBF1F100234E
:100B840000E0034601EBD171491003F10100F8D1F3
:100B94002268DB0022F0380203F038031343236099
:100BA40001F0A8FD02460B4600204FF0804102F000
:100BB400A9F806460F46284601F09CFD3B463246FE
:100BC40001F0E6FB236843F04003236001F054FD89
:100BD400F8BD5B6803F46053B3F5205F1DD017D9EB
:100BE400B3F5405F1BD0B3F5605FC6D12D11C4E7E8
:100BF4005005C2D55B6803F4E063B3F5A06F0CD075
:100C04000FD9B3F5C06F0AD0B3F5E06FEED0B4E7F7
:100C1400B3F5005FB1D16D10AFE7AD10ADE7ED10E6
:100C2400ABE7B3F5806FF6D0A7E700BF0000002064
:100C340000100240C163704730B4C5680468082DD1
:100C440013D0102D05D10D885B10C0E90923016272
:100C5400A581002303614361036901330361636870
:100C640043F0C003636030BC7047C0E9061283627E
:100C74000B782373EDE700BF214B70B51C68266821
:100C8400B568290629D4EA0716D5E368082B2AD0C3
:100C9400636A1BB1F168626923F812106369A26A7E
:100CA400013363616369934206DB7368E26B23F08B
:100CB4004003736002B19047AB070ED52269A36A63
:100CC4009A420BDAE368082B14D02269236A33F8BA
:100CD4001230B38123690133236170BD736823F03B
:100CE4008003736070BDE369002BD7D0F16862693B
:100CF4009954D3E72369A269D35C3373EAE700BF4D
:100D040040010020214B70B55C682668B56829064F
:100D140029D4EA0716D5E368082B2AD0636A1BB1E5
:100D2400F168626923F812106369A26A013363618E
:100D34006369934206DB7368E26B23F040037360DC
:100D440002B19047AB070ED52269A36A9A420BDA27
:100D5400E368082B14D02269236A33F81230B38174
:100D640023690133236170BD736823F080037360CA
:100D740070BDE369002BD7D0F16862699954D3E759
:100D84002369A269D35C3373EAE700BF4001002002
:100D94002DE9F0470F784A79042F1CBFA7F1070A01
:100DA400BAFA8AFAD94B91F8018033F81290CA79C9
:100DB40008F1FF388CB00C4606465FFA88F814BF79
:100DC4004FEA5A1A4FF0010A4369002A40F09B8106
:100DD40043F480034FEAD909207A23F44032030410
:100DE40003F4403343F0005313430CA941F8183D76
:100DF4003072736104220BA802F0B3F984230CADA2
:100E040005F8083D29460BAB04220120FFF7B2FD8B
:100E14004FF0500C48F2EE4E4FEA19202B460BA926
:100E240002228DF8290003208DF828908DF82EC019
:100E3400ADF82CE0FFF79EFD6D2048F2EE694FF00F
:100E4400100C8DF80B000BA90DF10B0301220320EC
:100E5400ADF82C908DF82EC0FFF78CFDB8F1000F83
:100E640040F0898141F207604FF0300C2B4602229A
:100E74000BA9ADF8280003208DF82EC0ADF82C90F6
:100E8400FFF778FDA24AA34B12F807900CA953F878
:100E94002930042241F81C3D0BA802F062F940F20B
:100EA400EB7C0BAB042229460220ADF828C0FFF7E7
:100EB40061FD40F6EB3C984A0DF1070312F8090076
:100EC4000BA901228DF807000220ADF82CC0FFF712
:100ED40051FD40F6E83C914A0DF1060312F80AE090
:100EE4000BA9012202208DF806E0ADF82CC0FFF713
:100EF40041FD8B4B0CA953F82930042241F8203DC5
:100F04000BA802F02EF940F6E84C0BAB042229465C
:100F14000220ADF828C0FFF72DFD022240F2E72E93
:100F2400E079A3797F4903EB400331F813C01046FD
:100F34004FEA1C292B460BA98DF828C08DF829905F
:100F4400ADF82CE0FFF716FD022240F2E74E764B97
:100F5400104633F818C00BA92B464FEA1C298DF80C
:100F640028C08DF82990ADF82CE0FFF703FDE37954
:100F7400002B00F01881A3780222042B00F0DA8001
:100F8400202140F2E76C10462B46ADF828100BA93F
:100F9400ADF82CC0FFF7EEFC282042F2E76C8DF888
:100FA40009000DF1090301220BA90220ADF82CC0A0
:100FB400FFF7E0FCE3785D4A03EB880352F8233043
:100FC4000CA941F8143D04220BA802F0CAF840F61B
:100FD400E70C0BAB042229460220ADF828C0FFF72A
:100FE400C9FCB4F80930002B00F0BE80D9B24FEA36
:100FF400132C022242F2E70EDFF8349110462B46FE
:101004008DF828100BA9ADF82CE08DF829C0FFF756
:10101400B1FCD9F800300CA941F8103D04220BA80A
:1010240002F09FF840F6E34C0BAB04222946022061
:10103400ADF828C0FFF79EFC022240F2E34E09EB14
:101044004808B8F804C010464FEA1C282B460BA9E0
:101054008DF828C08DF82980ADF82CE0FFF78AFCC4
:10106400A079002840F08A80014694F805C063788E
:1010740007F00F0242EACC623F0194F804C0FFB2C9
:101084009B043A4303F440234FEA8C57134307F07D
:10109400F86213430B430343294604220BA80A9323
:1010A40002F05FF89F230CAD05F80C3D29460BAB0D
:1010B40004220120FFF75EFC6178A278E3790A43F9
:1010C4005B0343EA02432946F36004220BA8099315
:1010D40002F047F888230CAC04F8243D21460BABFE
:1010E40004220120FFF746FC012242268D252346D7
:1010F4000BA910468DF80C608DF82C50FFF73AFCC4
:101104000CB0BDE8F08723F4800365E618470008B7
:10111400C8460008F8460008104700084C47000875
:101124005C47000850470008F0460008D046000815
:10113400C04600084FF0100940F2E76C2B460BA99B
:101144001046ADF82CC0ADF82890FFF713FC42F21E
:10115400E76C02AB01220BA902208DF80890ADF8D0
:101164002CC0FFF707FC25E74122102311469C46BB
:101174006272A3723DE740F2076075E60122A12086
:10118400E37910498DF82C0011F803C010460BA91F
:101194000DF10A038DF80AC0FFF7ECFB4FF40030A1
:1011A4004FF4401161E70222642140F2E76CADF88C
:1011B400281010462B460BA9ADF82CC0FFF7DAFB1C
:1011C400F8E600BFF446000870B548F2EE45302456
:1011D40082B0060A8DF800006B46022201A90320A2
:1011E4008DF80160ADF804508DF80640FFF7C2FB9E
:1011F40002B070BD30B5982483B0050A8DF80000A4
:101204006B46022201A901208DF801508DF804409B
:10121400FFF7B0FB03B030BD1318B3F5806F22DCC9
:1012240010B5841E82B0CAB1C9207F2AD3B28DF80A
:1012340004000FD9032063F07F03D2098DF8053031
:101244008DF806200B46224601A9FFF793FB0020E8
:1012540002B010BD8DF805300220F3E78923012088
:101264008DF80430EEE74FF0FF30704710B5C068DA
:1012740041EAC33384B0034343EA825304AC44F8E1
:10128400083D214603A8042201F06BFF882304A92A
:1012940001F80C3D042203AB0120FFF76BFB04B003
:1012A40010BD00BF10B5034682B0E2B151207F2AC1
:1012B400D4B28DF804000DD9D2098DF8062064F05B
:1012C4007F040A46032001A98DF80540FFF714FBAB
:1012D40002B010BD0A46022001A98DF80540FFF7AF
:1012E4000BFB02B010BD112201208DF804200A4628
:1012F40001A9FFF701FB02B010BD00BF152300B523
:1013040083B002A901F8043D052203460120FFF73A
:10131400F3FA03B05DF804FB002200B58BB285B08C
:10132400C0B202920BB340F040007F2B8DF8040052
:10133400C9B216D9032061F07F01DB098DF80510CD
:101344008DF80630042203AB0DEB0201FFF7D4FA4B
:1013540003A9042202A801F004FF029805B05DF875
:1013640004FB8DF805100220ECE78DF80400012041
:10137400E8E700BF30B50D46044685B004AB43F83A
:101384000C2D194603A8042201F0EBFEABB2E4B223
:10139400CBB164F03F047F2B8DF80840EDB20ED939
:1013A400032065F07F05DB098DF809508DF80A30BC
:1013B40003AB042202A9FFF7DDFA05B030BD8DF8B6
:1013C40009500220F4E764F07F048DF808400120FE
:1013D400EEE700BFF0B5042500270C4685B02A4689
:1013E40003AB0DEB0501064601208DF8045002976E
:1013F400FFF782FA2A4603A902A801F0B2FE029A74
:101404009CB90E4B13408424736102A9042203A8DF
:10141400029301F0A6FE03AB01A9042201208DF87A
:101424000440FFF7A7FA05B0F0BD054B04F4FF74C0
:10143400134043F001032343E5E700BFFEFF47F0F9
:1014440001FE47F00346022210B540F2C32482B0E5
:10145400010A8DF800308DF801106B4601A9104681
:10146400ADF80440FFF786FA022240F2432401ABB0
:1014740069461046ADF80040FFF73EFA02B010BDD1
:1014840030B5832483B0050A8DF800006B46022230
:1014940001A901208DF801508DF80440FFF76AFA84
:1014A40003B030BD70B5044610F0010086B05DD0C5
:1014B400262600258DF80C60A62605AB03A9042278
:1014C40001200495FFF718FA05A9042204A801F0E5
:1014D40048FE049B06A923F4705343F4A05341F837
:1014E400143D042205A801F03CFE8DF81060362658
:1014F40005AB04A904220120FFF73CFA0495B625A4
:1015040005AB03A9042201208DF80C60FFF7F4F960
:1015140005A9042204A801F024FE049B06A943F4AF
:10152400040341F8183D042205A801F01AFE05AB96
:1015340004A9042201208DF81050FFF71BFAA30719
:1015440037D44FF4887306A941F8103D042205A846
:1015540001F007FE42F6F60405AB04A904220220BA
:10156400ADF81040FFF706FA06B070BD26248DF8DA
:101574000C40A62405AB03A9049004220120FFF724
:10158400BBF905A904A8042201F0EBFD049B04A9FE
:1015940023F4705305A80422049301F0E2FD05AB83
:1015A40003A9042201208DF80C40FFF7E3F906B0EB
:1015B40070BD42F6F6040C4B06A941F8103D042216
:1015C40005A801F0CEFD05AB04A904220220ADF864
:1015D4001040FFF7CFF94FF4887303A9042205A83C
:1015E400039301F0BEFDB7E710010F0000B585B00D
:1015F40004A941F8080D042203A801F0B2FD4FF438
:10160400E57304A921F80C3D042203AB0220FFF783
:10161400B1F905B05DF804FBF0B58B0785B00C4655
:10162400064634D40627022303AD14F001044FF018
:1016340001021FD08D2410460DF1060329468DF8B2
:1016440006708DF80C40FFF795F9022240F24F37EF
:1016540002AB10462946ADF80C70FFF74DF99DF822
:1016640009309DF8080000EB032010F4816021D1BB
:1016740005B0F0BD8D268DF808302946104602AB22
:101684008DF80C60FFF776F9204605B0F0BD012215
:1016940080238D2703AD8DF8053010460DF1050329
:1016A40029468DF80C70FFF765F901238627B37678
:1016B4008223BAE7012240270DF107032946104689
:1016C4008DF80C408DF80770FFF754F900234FF0A4
:1016D400FF30B376CCE700BFF0B500240E2687B008
:1016E40005AB03A904220546012004948DF80C607F
:1016F400FFF702F905A9042204A801F032FD049FB2
:10170400FFF7E8F804948E2404A90422064605A8E9
:1017140001F027FD05AB03A9042201208DF80C403C
:10172400FFF728F9012240238D2405A910468DF8DE
:1017340002300DF102038DF81440FFF71BF9224B20
:1017440003A9042205A8039301F00BFD8F2306AC23
:1017540004F8103D214605AB04220120FFF70AF9E5
:1017640040F24F3C234605A901220220ADF814C0E3
:10177400FFF7C2F89DF8083083EA43031B060DD532
:10178400012040F2CD3C02468DF803000DF1030325
:1017940005A90220ADF814C0FFF7ECF82146042295
:1017A40005A8029701F0DDFC8E2306A901F8143D7B
:1017B400042205AB0120FFF7DDF83046FFF794F86B
:1017C4000023AB7607B0F0BDF8FF27042DE9F04302
:1017D4000D46490785B0804636D502AF03AE15F0F5
:1017E400010420D04FF440744FF08D09ADF8084047
:1017F40040F24F343B460222314601208DF80C90D2
:10180400FFF7B8F83B46012231460220ADF80C4000
:10181400FFF772F89DF8084014F0080435D120460B
:1018240005B0BDE8F0834FF480708D25ADF8080055
:101834003B463146022201208DF80C50FFF79AF8FE
:10184400204605B0BDE8F08340F24F3402AF03AE4A
:101854003B46012231460220ADF80C40FFF74CF81C
:101864009DF8083083EA43031A06B8D5012040F2F4
:10187400CD3402468DF807000DF1070331460220EE
:10188400ADF80C40FFF776F8A9E74046FFF724FFD0
:10189400AB0702D54FF0FF34C1E74FF480743B46E9
:1018A400314602220120ADF808408DF80C904FF02B
:1018B400FF34FFF75FF8B2E7F0B585B00E46054692
:1018C400FFF708F8044600200E2703AB01A9042201
:1018D400029001208DF80470FFF70EF803A902A806
:1018E400042201F03EFC029BAEB923EA05038E25D7
:1018F40002A9042203A8029301F033FC03AB01A95B
:10190400042201208DF80450FFF734F82046FEF736
:10191400EBFF05B0F0BD2B43E9E700BF30B5E02590
:1019240083B040F2F6348DF80350F02501A90DF18F
:10193400030301220220ADF80440FFF71BF801A9BC
:101944000DF1020301220220ADF804408DF802508B
:10195400FFF710F803B030BDF0B5362485B002AB04
:1019640003A90222054601208DF80C40FEF7C4FFAE
:101974000122B6269DF808408DF80C6024F003047B
:1019840014438DF808404FF4FB7440F2F64602AB62
:1019940003A91046FEF7EEFF03A90DF10903012286
:1019A4000220ADF80C40FEF7E5FF02220024ADF85A
:1019B4000C60AC2602AB03A91046ADF80840FEF754
:1019C400D9FF02AB03A9022201208DF80C60ADF807
:1019D40008400226FEF7CEFF40F2EC604FF43B775E
:1019E40003A90DF105030122ADF80C0030468DF872
:1019F4000540FEF7BFFF03A90DF10603012230469F
:101A0400ADF80C708DF80640FEF7B4FFADF80C701D
:101A140040F2F63703A90DF10703012230468DF891
:101A24000760FEF7A7FF01AB012203A930468DF83A
:101A34000440ADF80C70FEF79DFF114B114A1B6872
:101A4400A2FB03235B0B0393039B5A1E03922BB14C
:101A540000BF039B5A1E0392002BF9D1F02040F2E1
:101A6400F6340DF103038DF8030002A901220220CC
:101A7400ADF80840FEF77EFF0023AB7605B0F0BD5D
:101A8400000000205917B7D12DE9F04F00258BB085
:101A940009AB0191457485760583C0E90955C0E910
:101AA4000B5507A904220446012008958DF81C5003
:101AB400FEF722FF042209A908A801F052FB089AA4
:101AC400B44B9A4240F0188236262046FFF744FF72
:101AD40008AB022209A901208DF82460FEF70CFF4F
:101AE40001229DF82060B62726F0030616438DF8E0
:101AF40020604FF4FB76104608AB09A98DF82470DA
:101B0400FEF738FF0DF12103012209A90220ADF8E7
:101B14002460FEF72FFF01220427A426104603ABFE
:101B240009A98DF824608DF80C70FEF723FF0222BA
:101B34001E2640F2ED4B40F2ED684FF0030A40F6EA
:101B44006D29104608AB09A9ADF82060ADF824B0A2
:101B5400FEF710FF0DF11203012209A902208DF8EE
:101B640012A0ADF82480FEF705FF0DF11303012246
:101B740009A90220ADF824808DF81350FEF7FAFE6F
:101B840009AB3A4607A902200895ADF81C90FEF768
:101B9400B3FE3A4609A908A801F0E3FA0222089E16
:101BA4001046C6F30723637209A908ABADF824B045
:101BB400ADF82070FEF7DEFE04AB012209A9022075
:101BC4008DF810A0ADF82480FEF7D4FE0DF11103BA
:101BD400012209A90220ADF824808DF81150FEF7E6
:101BE400C9FE09AB3A4607A90220ADF81C90089536
:101BF400FEF782FE3A4609A908A801F0B2FA9DF858
:101C04002030002B40F0658102224FF0060C40F298
:101C1400ED4A40F2ED674FF00309002540F66D28C8
:101C2400104608AB09A9ADF820C0ADF824A0FEF712
:101C3400A1FE0DF11603012209A902208DF81690C8
:101C4400ADF82470FEF796FE0DF11703012209A9E1
:101C54000220ADF824708DF81750FEF78BFE09AB07
:101C6400042207A902200895ADF81C80FEF744FE63
:101C7400042209A908A801F074FA02224FF0070C03
:101C8400089B1046236009A908ABADF820C0ADF845
:101C940024A0FEF76FFE05AB012209A902208DF8EE
:101CA4001490ADF82470FEF765FE0DF115030122C2
:101CB40009A90220ADF824708DF81550FEF75AFEDC
:101CC40009AB07A9042202200895ADF81C80FEF791
:101CD40013FE042209A908A801F043FA089B16F090
:101CE4001F06636000F0CE80267446F0600640F65E
:101CF400EB650DF10E03012209A902208DF80E6097
:101D0400ADF82450FEF736FE019BDB0740F1BE80A0
:101D140036258DF82450B62508AB022209A90120E6
:101D2400FEF7EAFD012240F201318DF824504FF410
:101D3400FB75104608ABADF8201009A9FEF71AFE92
:101D44000DF12103012209A90220ADF82450FEF768
:101D540011FE02224FF4004140F2ED65104608AB3B
:101D6400ADF8201009A9ADF82450FEF703FE0A4B84
:101D74000A4A1B68A2FB03235B0B0793079B5A1EAB
:101D840007926BB100BF079B5A1E0792002BF9D133
:101D940006E000BF3001CADE000000205917B7D1A9
:101DA40036258DF82450B62508AB022209A9012056
:101DB400FEF7A2FD012200218DF824504FF4FB759B
:101DC4009DF82130104623F001038DF821308DF861
:101DD400201008AB09A9FEF7CDFD0DF12103012266
:101DE40009A90220ADF82450FEF7C4FD238B43F467
:101DF400006323833625B62608AB022209A90120F5
:101E04008DF82450FEF778FD012200258DF824601A
:101E14004FF4FB769DF82110104621F0010108AB28
:101E24008DF8211009A98DF82050FEF7A3FDADF817
:101E3400246040F6EC260DF12103012209A90220B9
:101E4400FEF798FDADF8246004260DF10F0301227E
:101E540009A902208DF80F50FEF78CFD0AA909ABE1
:101E640001F8106D324601200895FEF745FD324613
:101E740009A908A801F075F92846089B63610BB00D
:101E8400BDE8F08F10237026237430E7022240F25D
:101E9400765508AB09A91046ADF82450FEF72CFD81
:101EA4004FF6FF51022240F2F6559DF821009DF8AD
:101EB4002030ADF8245003EB002319400D0A8DF8AF
:101EC4002010104608AB09A98DF82150FEF752FDE9
:101ED40090E7022141F2ED2508460DF10D038DF83E
:101EE4000D10012209A9ADF82450FEF743FD238B00
:101EF40043F48053238387E64FF0FF30BFE700BFEE
:101F040008B5124A136823F007031360104B984274
:101F140004D8136843F00103136008BD0D4B9842C5
:101F240005D80A4A136843F002031360F5E70A4B25
:101F3400984205D8054A136843F004031360ECE79C
:101F44009F220649064801F0DBF8FEE70020024024
:101F540000366E01006CDC0200A24A0474470008DB
:101F6400C445000810B5254A136843F00103136003
:101F7400224B1B6813F0020FFAD0204B1A6822F090
:101F8400F8021A601A6842F080021A605A6822F055
:101F940003025A601A6822F080721A60174B1B6899
:101FA40013F0007FFAD1154C636843F002036360B9
:101FB4001348FFF7A5FF636823F0F00363606368C9
:101FC400636063686360636843F480636360636849
:101FD40023F480336360636823F47013636063687D
:101FE40043F460136360236843F080732360034BFE
:101FF4001B6813F0007FFAD010BD00BF0010024030
:102004000090D003004870474C01002030B591EA9D
:10201400030F00F18480841A71EB030C05D21219AA
:1020240053EB0C03001B71EB0C0140F2000CCFF6D8
:10203400E07C1CEA430F54D0BCEB410F61D90C0D7A
:10204400A4EB135E31EA0C0141F4801133EA0C0372
:1020540043F48013DEF1200C2AD303FA0CF5401963
:1020640041F1000122FA0EF5401923FA0EF56941F7
:1020740012FA0CF2CD0208D349085FEA30005FEA95
:10208400320228BF42F001020134013C5FEA500CE5
:1020940072F1004250F1000051EB04514FF400136F
:1020A40013EB410F38BF30BD090D0905002030BDC9
:1020B400BEF1200EBEF1200F1ED223FA0EF54019F8
:1020C40041F10001CEF1200C124218BF012203FAA3
:1020D4000CF52A43CEE711EA5C0F04BF002000216F
:1020E40030BD1CEA410F04BF01F00041002030BDA7
:1020F40001F00041002030BD21F4801101EB0451B6
:1021040030BD004218BF41F00101BCEB410F08BFD4
:1021140030BD4FF0FE4141F47801002030BD83F022
:102124000043841A71EB030E07D28EF0004E001B9D
:1021340071EB0E01121953EB0E0340F2000CCFF6B3
:10214400E07C1CEA430FC6D0BCEB410F72D90C0DE6
:10215400A4EB135EC90241EA5051C00241F00041B0
:10216400DB0243EA5253D20243F00043DEF1200C77
:1021740041D312FA0CF522FA0EF203FA0CF542EAF4
:10218400050218BF42F0010223FA0EF3801A9941A6
:10219400E30AC4F30A0411F0404F03D418D0013CFD
:1021A40040004941013C23D44205C00A40EA415061
:1021B400C90A51EAC3715FEA500C72F1004250F14E
:1021C400000051EB045130BD01002FD00020203C11
:1021D4000029F9D0B1FA81FCDCF1200E11FA0CF1DE
:1021E40030FA0EF510FA0CF02943A4EB0C04D9E7ED
:1021F4000020D90730BDAEF1200EBEF1200F0DD264
:10220400CEF1200C03FA0CF533FA0EF32A4318BF6F
:1022140043F00103C01A61F10001B9E721F0004164
:10222400C00A40EA4150C90A01EB045130BD002004
:10223400002130BD004218BF41F00101BCEB410F49
:102244007FF467AFBCEB430F3FF463AF30BD00BF17
:1022540083F00043FFF7DABEF0B540F2FF7681EA7F
:10226400030C16EA115E1EBFB64516EA1355B542B5
:102274005AD021EA465141F48011A1FB024723EAD6
:10228400465343F48013AE44A0FB03650CF0004CAA
:1022940036197D41A1FB034747F10003A0FB021758
:1022A400F619654153F10003094218BF46F00106CF
:1022B40040F2FE74B3F5007F13D2AEF5806EA645EE
:1022C4002BD24CEA0331280341EA155140EA165057
:1022D4003203450872F1004250F1000051EB0E51F7
:1022E400F0BDAEF2FF3EA64517D24CEAC321E80288
:1022F40041EA555140EA5650F202450872F1004253
:1023040050F1000051EB0E51F0BD0CF0004141F0D2
:10231400FE4141F470010020F0BD1EEA0E0FF4D519
:102324000CF000410020F0BD16EA115F04BF01F07B
:1023340000410020004218BF41F0010116EA135F7A
:1023440004BF03F000430022124218BF43F001030C
:1023540006EA1354B44218BF9EEA060F03D00CF0E9
:1023640000410020F0BD21F0004123F00043B1EB17
:10237400065F06D8B3EB065F03D8002918BF002B0D
:10238400C3D140F20001C7F6F8710020F0BD00BFD0
:102394002DE9F04391EA030E0EF0004E40F20007DF
:1023A400CFF6E07717EA41051EBF95EA070F17EA53
:1023B400430595EA070F00F0A1807F0D17EA135635
:1023C40023EA475343F4801317EA115521EA47518E
:1023D40041F48011AD1B05F2FD354FEAD31C1CF10D
:1023E400010C4FF00047B7FBFCF77F01A2FB079CF1
:1023F4000024E3FB07C4DCF1000CD9F100097CF1F3
:10240400000CA0FB07620020E1FB072000275FEA25
:10241400C628E0FB0987760D46EAC226520DF61956
:1024240000277A41E0FB0C625FEAC823E2FB09372C
:102434005FEA585848EAC628760D18EB07080021C9
:102444004E41E2FB0C8602EBC020DA02E6FB0921D6
:102454005B0D43EAC8235FEA58585B18002758EB22
:102464000708E6FB0C38D102E8FB0917520D42EAD3
:10247400C3225B0DD21900277B41E8FB0C2308EB38
:10248400C6265FEAC128E3FB0987490D41EAC22158
:10249400520DC91942F10002E3FB0C12470019EB7B
:1024A40008095CEB010C72EB040453EBC62047EB08
:1024B40056530026B3F5000F7641AD190236D6F116
:1024C400200910FA09F4F04013FA09F21043F3401A
:1024D400E40F001943F10003B3F5001F24BF5B08A8
:1024E400013540F2FE77BD4204D24EEA055119444B
:1024F400BDE8F0832D4224D5714626E0004218BF82
:1025040041F00101124218BF43F00103B7EB410F40
:102514002CBFB7EB430F1BE0B7EB410F04BFB7EB86
:10252400430F15E017EA410F04BF17EA430F0FE00A
:1025340017EA410FE0D017EA430F02D0B7EB430F7D
:10254400DAD04EF0FE4141F470010020BDE8F08382
:1025540040F20001C7F6F871F7E700BF4FF4001C22
:102564001CEB410F98BF1CEB430F11D851EA030C2D
:1025740050EA4C0C5CEA020C0CD004D282428B412F
:102584008041013070479042994180410130704749
:1025940000207047012070474FF4001C1CEB410FD2
:1025A40098BF1CEB430F0CD850EA410C08BF52EA09
:1025B400430C08D0904208BF99420CBF0120002070
:1025C4007047002070470120704700BF4FF4001C83
:1025D4001CEB410F98BF1CEB430F11D851EA030CBD
:1025E40050EA4C0C5CEA020C0CD004D290429941A3
:1025F40080410130704782428B41804101307047F5
:1026040000207047012070474FF4001C1CEB410F61
:1026140098BF1CEB430F11D851EA030C50EA4C0C41
:102624005CEA020C0AD004D282428B4180414042CF
:102634007047904299418041404270470020704762
:102644004FF4001C1CEB410F98BF1CEB430F11D837
:1026540051EA030C50EA4C0C5CEA020C0AD004D296
:102664009042994180414042704782428B4180416F
:102674004042704700207047C1F30A5340F21E42A3
:10268400D21A0BDDCB0243EA505040F0004030FA3E
:1026940002F090EAE170B0EBE17070474B00004249
:1026A40018BF43F0010313F5001F88BF21F0004158
:1026B40011F0004058BF6FF0004070470A15C9027E
:1026C40041EA5051C00241F0004140F21E439A1ABF
:1026D40008DA20320AD4D141D04048409140D14058
:1026E4004840704731FA02F0002170476FF0000152
:1026F4000846704780B110F0004248BFD0F1000096
:10270400120D02F21D42B0FA80F18840521AC30A37
:10271400400503EB0251704701007047F9B140F2E4
:102724003D42B1FA81F3D21AC3F1200C30FA0CFC09
:102734009840994051EA0C0183054FEAD02040EAC1
:1027440041504FEAD12101EB025138BF70470130AB
:1027540041F100011B4208BF20F00100704748B15D
:1027640040F21D42B0FA80F3D21A9840C10A4005E3
:1027740001EB0251704700BF0128494111F5001FC8
:102784000CBF0120002070470128494111F5001FAA
:102794008CBF01200020704701F00040704700BF4B
:1027A40021F00041704700BF2DE9F041002390461D
:1027B400002206460F46FFF7EFFE30B100233046F5
:1027C4003946C8F80030BDE8F08127F0FF4323F410
:1027D400E00343F07F55C7F30A5345F40015A3F211
:1027E400FE3330462946C8F80030BDE8F08100BF0A
:1027F4002DE9F0410023904600220F460446FFF7DE
:10280400CBFEB8B940F2FE72C7F30A534344934275
:1028140014DCB8F1000F01DB002B0FDB002B09DD0A
:1028240027F0FF4222F4E00242EA035520462946FB
:10283400BDE8F08100200021BDE8F08100F056FCE5
:102844000346034A0020126802491A60BDE8F08179
:10285400184800080000F07F000000002DE9F8434C
:1028640004460D46FFF790FF002840F0A1805BA3CB
:10287400D3E9002320462946FFF7C6FE002840F08E
:102884009E8058A3D3E9002320462946FFF7D8FEAB
:1028940018B100200021BDE8F88320462946FFF73F
:1028A4007FFF52A3D3E90023FFF7CAFE002840F0BC
:1028B40083800022002320462946FFF787FE002656
:1028C400002800F08680594F4AA3D3E9002320460C
:1028D4002946FFF7C1FC32463B46FFF797FBFFF75B
:1028E400CBFE0646FFF706FF44A3D3E90023804648
:1028F4008946FFF7B1FC02460B4620462946FFF7FE
:10290400A7FC40A3D3E9002304460D4640464946AC
:10291400FFF7A2FC02460B4620462946FFF776FB4A
:1029240002460B4680468946FFF796FC37A3D3E957
:10293400002304460D46FFF78FFC36A3D3E900239A
:10294400FFF764FB22462B46FFF786FC0022384B38
:10295400FFF75CFB42464B46FFF77EFC2FA3D3E90F
:1029640000238046894620462946FFF775FC2DA39F
:10297400D3E90023FFF74AFB22462B46FFF76CFC02
:1029840000222A4BFFF742FB42464B46FFF760FC0E
:1029940002460B4640464946FFF7FAFC0136002240
:1029A400224BFFF733FB3246FFF722FFBDE8F883E3
:1029B40020462946BDE8F88300201E496BE700F055
:1029C40095FB03461C4A002012681C491A60BDE8A6
:1029D400F8831B4F78E700BFAFF30080EF39FAFEAE
:1029E400422E8640D2BC7ADD2B2386C02342920C31
:1029F400A19CC73B3CF92F9E2C15F73F000000001B
:102A04000030E63FA80C615C10D02B3F1CDC586FF3
:102A1400A452F13EE0F6B36FE4707C3F0938DE6FF8
:102A2400993F403FB35142718E71AC3F0000E03F8B
:102A34000000D03F0000F03F184800080000F07F7D
:102A44000000E0BF2DE9F04F83B004460D46FFF7C8
:102A54009BFE002840F0B88000220023204629462F
:102A6400FFF79AFD002840F0B4800022002320469E
:102A74002946FFF7E5FD002840F0A68020462946B8
:102A840001AAFFF791FE63A3D3E9002304460D4690
:102A9400FFF7BAFD002840F0A180019B204629469B
:102AA4005C1E00226D4B0194FFF7D2FB4FF0FF3206
:102AB40004460D46FFF79CFE0022684BFFF7A6FA7A
:102AC40002460B4620462946FFF762FC06460F469F
:102AD40032463B4630463946FFF7BEFB4FA3D3E9A7
:102AE400002304460D46FFF7B7FB4EA3D3E90023AA
:102AF400FFF78CFA4DA3D3E900238046894620468C
:102B04002946FFF7A5FB22462B46FFF7A5FB49A361
:102B1400D3E90023FFF77AFA424682468B464B46B6
:102B240020462946FFF798FB44A3D3E90023FFF787
:102B34008FFB5246804689465B4620462946FFF76E
:102B44008BFB40A3D3E90023FFF782FB02460B462D
:102B540040464946FFF71CFC02460B4620462946E0
:102B6400FFF77AFB32463B46FFF776FB8046019837
:102B74008946FFF7BFFD424604460D464B463046A4
:102B84003946FFF743FA31A3D3E9002306460F463B
:102B940020462946FFF760FB02460B46304639467D
:102BA400FFF734FA2BA3D3E9002306460F46204649
:102BB4002946FFF751FB02460B4630463946FFF7DC
:102BC40025FA03B0BDE8F08F0020254903B0BDE825
:102BD400F08F0020234903B0BDE8F08F224B002280
:102BE40020462946FFF734FB4FF0FF3206460F46D6
:102BF40020462946FFF7FCFD0022184BFFF706FA92
:102C040002460B4630463946FFF7C2FB06460F46DE
:102C14005EE700BFCD3B7F669EA0E63F29BD56B36D
:102C24001544E9BFEDAF16204A6230400FCE674B22
:102C340080D541407E2615FA838073409AB5B3123D
:102C4400FF07504077900D9CFE0B8840A80C615CF8
:102C540010D02BBF000000000030E63F0000E03F32
:102C64000000F87F0000F0FF0000F03F2DE9F0477E
:102C74000026002790463B46324605460C46FFF7A1
:102C84008BFC48BBC4F30A53A3F2FF32002AAE46BE
:102C940028DB332A2CDC4FF0FF39DFF864A0284608
:102CA40029FA02F5C2F120090AFA09F9A3F21F432D
:102CB4002AFA03F345EA09051D432AFA02F224EA33
:102CC40002072EEA050632463B462146C8E90023A0
:102CD400FFF7BEFABDE8F087C8E900673046394619
:102CE400BDE8F087C8E9006728462146BDE8F087BB
:102CF4002A4623463046C8E900233946BDE8F08712
:102D0400FFFF0F002DE9D0439046994606460F4633
:102D14000022414B40464946FFF73EFCE0BB0022FF
:102D2400002330463946FFF737FC70B14046494628
:102D340000220023FFF712FCA0BB4FF000084FF065
:102D4400000940464946BDE8D08349464046FFF75E
:102D540093FC0446FFF7CEFC42464B46FFF71CFCAF
:102D640068BB0022002330463946FFF769FCC8B926
:102D740030463946FFF714FDFFF764FE02460B4662
:102D840040464946FFF768FAFFF768FD80468946E2
:102D940040464946BDE8D083B046B9464046494618
:102DA400BDE8D08300F0A2F94FF000081B4BDFF818
:102DB40070901B68494603604046BDE8D083002CF0
:102DC4001BDB24D0E3074FF00008DFF84C9007D555
:102DD4004046494632463B46FFF73EFA804689461E
:102DE4006410AED03B46324630463946FFF734FADB
:102DF400E30706460F46F3D5EAE732463B46002092
:102E04000549FFF7C5FA644206460F46DAE74FF074
:102E14000008DFF8049094E70000F03F144800082D
:102E24000000F0FF2DE9F0410022002304460D4686
:102E3400FFF7B2FBE8BBC5F30A51A1F2FF3000284B
:102E440022462B462CDB332833DC4FF0FF3CDFF8E3
:102E540078E0C0F120082CFA00FCA1F21F410EFA20
:102E640008F82EFA01F14CEA080C4CEA010C2EFA8F
:102E740000F003EA000702EA0C0625EA000524EA4A
:102E84000C0456EA07032046294607D0002C75F1A6
:102E9400000303DA00220A4BFFF7DAF9BDE8F081F8
:102EA400002C73F100034FF0000006DB0021BDE8A5
:102EB400F08120462946BDE8F0810249BDE8F08151
:102EC4000000F03F0000F0BFFFFF0F002DE9F043CA
:102ED40016461F4683B004460D46002200233046A2
:102EE4003946FFF759FB002869D120462946FFF7E8
:102EF4004BFC30B126462F463046394603B0BDE878
:102F0400F08330463946FFF73FFC0028F4D1002215
:102F1400002320462946FFF73FFB0028EAD120463C
:102F24002946FFF729FC002855D130463946FFF7DA
:102F340023FC0028DED130463946FFF731FC8146B8
:102F440088460B46024629462046FFF721FA6A4680
:102F5400FFF78CFEDDE9002348464146FFF77CF984
:102F640002460B4620462946FFF772F90022064620
:102F74000F46002320462946FFF746FB70B3484618
:102F8400414632463B46FFF7E9FA38B13046394606
:102F94004A464346FFF75CF906460F4600220023E3
:102FA40030463946FFF74CFB0028A5D03046394659
:102FB4004A464346FFF72AF806460F469CE700F0C8
:102FC40095F80026164B174F1B68394603603046A8
:102FD40003B0BDE8F0830026124F8DE74A4608F19E
:102FE400004330463946FFF7B9FA38B1304639461E
:102FF4004A464346FFF70AF806460F4600220023D6
:1030040030463946FFF700FB00283FF475AF3046E1
:1030140039464A464346FFF71BF906460F466BE717
:10302400144800080000F87F70B5041E06DB002C6D
:103034001BDD002600200E490E4D06E064420126E9
:10304400F8E764100835002C07DD14F0010FF8D000
:10305400D5E90023FFF700F9F3E72EB102460B464A
:1030640000200349FFF794F970BD00200049FBE7F5
:103074000000F03F2048000838B504460846A2681E
:1030840042B1236861685D1C8D4208BF00208B42F9
:1030940008D2D054E3682BB121686268914201D20E
:1030A4002146984723680133236038BD70B54C1E10
:1030B40009D41646C5B229463046FFF7DDFF013C68
:1030C400B4F1FF3FF7D170BD10F0100F09D108B56E
:1030D40000F40070002814BF30202020FFF7E6FF22
:1030E40008BD70470028B8BF4042704700B5FEF7DE
:1030F40089FF024B18445DF804FB00BF0800000080
:103104000FB410B586B008AB53F8044B05930023F5
:1031140003936FF000430293084B049300F0ADF85F
:10312400059A214601A800F021F9044600F0A6F80A
:10313400204606B0BDE8104004B0704735030008CF
:10314400037853B159B10144034613F8012F12B166
:103154008B42FAD10B46181A70470346FBE7034625
:10316400F9E7844640EA010313F0030F18D18446BB
:10317400202A0BD32DE9F007B1E8F807A0E8F807F7
:10318400A2F12002202AF7D2BDE8F007042A07D3CF
:1031940051F8043B40F8043BA2F10402042AF7D29C
:1031A400002A05D011F8013B00F8013B013AF9D19E
:1031B400604670478446002A2DD010F0030F04D0D7
:1031C40000F8011B013A26D0F7E7C9B241EA012110
:1031D40041EA0141202A12D3A2F120022DE9F00391
:1031E4000B460C460D460E460F4688468946A0E817
:1031F400FA03203AFBD2BDE8F00320320BD0042AB4
:1032040005D340F8041B043A05D0042AF9D200F887
:10321400011B013AFBD16046704700F1010110F037
:10322400030F11D010F8012B002A23D010F0030F44
:103234000AD010F8012B002A1CD010F0030F03D081
:1032440010F8012B002A15D02DE970004FF001323F
:103254004FF0803350F8044BA4EB020525EA040533
:103264001D4000D1F6E7A0F1040070BC10F8012B5A
:10327400002AFBD1A0EB010070477047704753EA66
:10328400020C61D02DE9F04BB3FA83F51E0007BFA1
:10329400B2FA82F502FA05F403FA05F41646C5F10A
:1032A40020051EBF22FA05F73C43203556EA044C9C
:1032B4004FEA144418BF0134A3464FF00009C8462E
:1032C400904271EB030C39D3094207BFB0FA80F77F
:1032D40000FA07F6B1FA81F701FA07F6C7F12007F9
:1032E4001EBF20FA07FC46EA0C062037B6FBFBFC9F
:1032F4007F1B103F07F01F04C4F120060CFA04F4EE
:103304002CFA06F644BF34460026202FA4BF2646D6
:10331400002454EA060C08BF012418EB040849EB06
:103324000609A4FB027CC01B06FB02CC04FB03CCF5
:1033340071EB0C01904271EB030CC5D20B460246B3
:1033440049464046BDE8F08BB2FBF3F210B50446A3
:103354000146172001F0DAF800280CBF20464FF090
:10336400FF3010BD70477047000000002DE9F04F9A
:1033740095B0039006910B9200230360069D15F807
:10338400011B002901F03780252904D00398FFF799
:1033940073FE0695F2E7002402E044F040041D4663
:1033A4002B4613F8010BA0F120023E2A00F2948070
:1033B40001A151F822F000BF9F330008DD3400085A
:1033C400DD340008B9340008DD340008DD340008B9
:1033D400DD340008BF340008DD340008DD340008A3
:1033E400DD340008CB340008DD340008D134000893
:1033F400DD340008DD340008D7340008DD3400086B
:10340400DD340008DD340008DD340008DD34000854
:10341400DD340008DD340008DD340008DD34000844
:10342400DD340008DD340008DD340008DD34000834
:10343400DD340008DD340008DD340008DD34000824
:10344400DD340008DD340008DD340008DD34000814
:10345400DD340008DD340008DD340008DD34000804
:10346400DD340008DD340008DD340008DD340008F4
:10347400DD340008DD340008DD340008DD340008E4
:10348400DD340008DD340008DD340008DD340008D4
:10349400DD340008DD340008DD340008DD340008C4
:1034A400DD340008DD340008DD340008DD340008B4
:1034B400C534000844F0800471E744F400446EE726
:1034C40044F480546BE744F0200468E744F01004AB
:1034D40065E744F4007462E72A2823D10B9A111D8E
:1034E4000B911268002ABCBF524244F010041878B1
:1034F400AB1C22EAE27207922E2828D04FF0000873
:1035040074284CD07A284AD06A2800F0C9806C28E4
:1035140000F0CC804C2800F0D780682800F0E580CB
:1035240006933FE0A0F13002D2B2092A88BF0022FC
:10353400DFD8002202EB8202303800EB420213F89B
:10354400010BA0F13001C9B20929F3D9D1E71878E8
:103554002A280CD10B9A111D0B91D2F800805878AF
:103564000233B8F1000FCBDB44F48074C8E70133B5
:10357400A0F13002D2B2092A88BF4FF00008F3D874
:103584004FF0000808EB8808303800EB480813F8BF
:10359400010BA0F13002D2B2092AF3D9E1E713F802
:1035A400010B0693782800F29280DFE810F03207CE
:1035B4009000900090009000900090009000900087
:1035C4009000900090009000900090009000900077
:1035D4009000900090009000900090009000900067
:1035E4009000900090009000900090009000900057
:1035F4009000900090009000AC009000900090002B
:103604009000900090009000900090009000900036
:103614009000900090009000900090009000900026
:103624009000900090009000900090009000900016
:1036340090009000900090004302620267029000A4
:1036440090009000900090009000900090009000F6
:103654009000900090009000900090009000420133
:1036640090009000900090009000900090009000D6
:1036740090009000B1009401450264026902900038
:1036840094019000900090009000C3007E011D0101
:1036940090009000DC0090008C01900090004401A8
:1036A40044F0020413F8010B06937BE718786C28A6
:1036B40004D00133069344F0010473E744F0020498
:1036C4009A1C069258786DE744F001040693954BD2
:1036D4001D68002D3FF452AE0BAB0193CDF8008072
:1036E400079B22460399A84748E61878682804D01F
:1036F4000133069344F0040454E744F008049A1C8C
:10370400069258784EE725210398FFF7B5FC35E675
:103714000B9B1A1D0B921D78079B03F1FF3A039E26
:10372400324651462046FFF7CFFC29463046FFF784
:10373400A3FC4AE014F0080F07D0039B1A680B9B04
:10374400191D0B911B681A7018E614F0020F0B9BDD
:1037540003F104020B921B68039A12681A601CBFDF
:1037640000225A600AE60B9B1A1D0B921B680493F5
:1037740026466D4BDDE904010246002808BF1A46BF
:10378400049226F4007416F4807F28D041460498ED
:10379400FFF7D6FC0546079BA3EB050A039A51469F
:1037A4002046FFF791FC05F1FF3B75B1DDE90467A5
:1037B4003346013619780398FFF75EFC0BF1FF3BA3
:1037C400BBF1FF3FF4D1CDE9046714F0100F3FF4CF
:1037D400D5AD039A51462020FFF768FCCEE5049846
:1037E400FFF71BFD0546D6E70B990B1D0B930A68E3
:1037F400002316461F46CDE9046704F08003BB424C
:103804000CBFB9464FF0230944F480744FF0080804
:10381400DDE90401024650EA010500F0B7850DAE6A
:10382400002504F40057DFF804E1DFF804C100F0D8
:103834007BBD44F4005414F0800F33D043F2780974
:1038440043F25803782818BF994614F4807F01D0B6
:1038540024F4007414F4804F6CD014F0020F42D09E
:103864000B9B073323F0070303F108020B92D3E900
:103874000023CDE9042314F0040F3DD0BDF810104B
:103884000AB2D317CDE90423DDE90423002A73F136
:1038940000013BDA524263EB4303CDE904234FF0CA
:1038A4002D095FE04FF00009CFE704F08003002BFF
:1038B4000CBF4FF000094FF0300914F4807FC9D0D9
:1038C40024F40074C6E714F4807F09D024F400744F
:1038D4004FF00009BEE744F480444FF00009B9E713
:1038E4004FF00009B6E70B9B1A1D0B921E68324677
:1038F400F317CDE90423BEE714F0080FC4D09DF8F4
:103904001020002316461F46CDE9046714F0200F4B
:1039140040F08D8004F04003002B18BF4FF02009C5
:1039240020E000BF4801002090480008F447000848
:103934000448000814F0020F64D00B9B073323F0F3
:10394400070303F108020B92D3E90023CDE9042312
:1039540014F0040F60D0BDF81020002316461F4653
:10396400CDE9046714F4807F00F0858424F40074A6
:103974005838202800F2088501A353F820F000BF2E
:10398400153800088D4300088D4300088D43000856
:103994008D4300088D4300088D4300088D430008C3
:1039A4008D4300088D4300088D4300088D430008B3
:1039B400EF4200088D4300088D4300088D43000842
:1039C4008D430008EF4200088D4300088D43000832
:1039D4008D4300088D4300088D430008834200088E
:1039E400153800088D4300088D4300088D430008F6
:1039F4008D430008EF4200088D4300088D43000802
:103A0400153800080B990B1D0B930A680023164602
:103A14001F46CDE904679BE714F0080FA2D09DF878
:103A24001020002316461F46CDE904679AE74FF09D
:103A34002B0997E744F4005444F480660B9B073346
:103A440023F0070303F108020B92D3E90045CDE903
:103A5400044516F4807F16D0B8F1000F15D106F492
:103A64004068B8F5406F14BF4FF000084FF00108EC
:103A74000BE044F4005444F40066DFE744F40054DB
:103A840044F44066DAE74FF0060820462946FEF77C
:103A940073FE002840F0C18020462946FEF774FEDC
:103AA4000A90002840F0D88020462946FEF774FE8C
:103AB40048B146F06006089405F100430993DDE936
:103AC4000834CDE90434DDE9044513AA2046294627
:103AD400FEF76AFE139B03EB4303BA4A82FB03120D
:103AE400DB17C3EBA20313930022002320462946CD
:103AF400FEF752FD002800F0BD8006F44067B7F5DC
:103B0400806F0AD0B7F5406F40F0D781139B4345CF
:103B140003DA13F1040F80F2D0811398B0F59A7F81
:103B240040F0C480A5A3D3E9002320462946FEF72C
:103B34002FFCCDE90401DDE90445002200232046E1
:103B44002946FEF729FD002846D120462946FEF7DE
:103B540013FE002840F0B68000229B4B20462946E5
:103B6400FEF734FDB8B1139B03F10109CA460022E4
:103B7400954B20462946FEF70BFC04460D4609F1F9
:103B840001090022904BFEF721FD0028EED1CDF86B
:103B94004CA0CDE90445DDE9044500228B4B2046C9
:103BA4002946FEF74DFDB8B1139B03F1FF39CA4610
:103BB4000022854B20462946FEF74EFB04460D465F
:103BC40009F1FF390022814BFEF73AFD0028EED1BE
:103BD400CDF84CA0CDE90445B8F1000F00F02284E3
:103BE400B7F5406F00F08D80C8F10000FFF71CFAB4
:103BF4000022774BFEF730FBDDE90423FEF706FADB
:103C040004460D46CDE9044500226F4BFEF7DEFC69
:103C1400002800F02C8400F01BBC00220023204666
:103C24002946FEF70DFD70B906F40052694B6A4946
:103C3400002A08BF0B4616F0200F08BF0133049377
:103C440026F4807695E506F400536449644A002B13
:103C540008BF11460491F3E706F40051614A624B30
:103C6400002908BF1A46049226F4807689E5139B3E
:103C74000133139313980130FFF7D6F902460B462C
:103C840020462946FEF7C0FC0028F0D11398FFF720
:103C9400CBF902460B4620462946FEF7D1FC002804
:103CA4003FF42BAF139B013B1393EFE74042FFF725
:103CB400BBF902460B4620462946FEF7CDFACDE96C
:103CC400040138E70022002320462946FEF7B8FC09
:103CD40070B906F400523F4B3F49002A08BF0B4617
:103CE40016F0200F08BF0133049326F4807640E5D4
:103CF40006F4005339493A4A002B08BF114604918F
:103D0400F3E708F1FF37C8F10100FFF78DF900224E
:103D14002F4BFEF7A1FADDE90423FEF777F90446F9
:103D24000D46CDE904450022274BFEF74FFC08B1B0
:103D3400B8468DE3B84696E3B8F1100FA8BF4FF02C
:103D44001008DDE904454046FFF76EF902460B46CC
:103D540020462946FEF780FAFEF7B0FC04460D46DD
:103D640054EA05030AD126F40069079BA3F1050A66
:103D740016F0800340F08A830A9389E30A22002321
:103D8400FFF77DFA134340F078834FF00A094FF0B0
:103D9400000A4746013F4A46534620462946FFF754
:103DA4006EFA04460D46002FDDD04A465346FFF70F
:103DB40066FA1343EED0B8465FE300BFA0C8EB85B4
:103DC400F3CCE17F67666666000024400000F03FA4
:103DD4000000E03F78480008804800086848000870
:103DE40070480008884800088C4800084FF0010813
:103DF4000A9B23EAE3730A9316F0600F18BF0AF1D3
:103E0400FF3A1398FFF76EF96328C8BF0AF1FF3A27
:103E1400DDE9046730463946FEF750FC04460D469A
:103E2400FEF77CFC02460B4630463946FEF710FA94
:103E3400CDE904012AEAEA7B19F4047F00F0F48056
:103E440019F0200F00F0FF8009F04003002B14BF8D
:103E54002D212B210398FFF70FF919F0100F00F013
:103E6400FB80C14E08F10057013F06EBC7074FF036
:103E7400300A07E10022BD4BDDE90401FEF7ECF94D
:103E8400CDE90401013C13940AF1FF3A4FF0020812
:103E9400AEE70022B64BDDE90401FEF7DDF9CDE91A
:103EA4000401023C1394AAF1020A4FF003089FE7AD
:103EB400D8469DE74FF001089EE716F4806F2CD09A
:103EC400139B0E2B2BDC0133A8EB0302102AA8BF93
:103ED40010220A9216F0800F21D143451FD01746B5
:103EE4003846FFF7A1F802460B4620462946FEF75E
:103EF400B3F900229F4BFEF789F8FEF793FF0022E7
:103F04009A4BFEF7E3FF00220023FEF745FB00284F
:103F140068D0013FE4D10A9701E0CDF8288026F467
:103F24008069139B0A9A5042A3F10F028242C8BFD0
:103F3400A3F11000FFF778F84FF0FF32FEF758FCBA
:103F440002460B4620462946FEF760F8CDE90401F7
:103F5400DDE904AB13980130FFF766F802460B461F
:103F640050465946FEF732FB10B1139B01331393AD
:103F7400139800284EDB102836DC50465946FEF7CD
:103F84009DFB04460D46FEF7C9FB02460B46504610
:103F94005946FEF75DF9CDE9040100231393002D82
:103FA40008BF0A2C3DD3744B4FF0010808F10108F7
:103FB400F3E902018D4208BF8442F7D20A9A02EB68
:103FC400080A139B9A44079BA3EB0A0A06F0800392
:103FD400134318BF0AF1FF3A16F0600F18BF0AF135
:103FE400FF3A27E70A979AE7A0F110031393C0F169
:103FF4001000FFF719F802460B4650465946FEF7E3
:104004002BF9FEF75BFB04460D4600220023CDE9A5
:104014000423C4E700231393002400254FF0010870
:10402400CCE74FF00108C9E7BAF1000F7FF708AFFA
:1040340020265F46013F31460398FFF71DF8002F05
:10404400F8D1BB46FCE619F0400F3FF406AF20213F
:104054000398FFF711F800E7BBF1000F3FF401AF3D
:1040640030265F46013F31460398FFF705F8002FDD
:10407400F8D1BB46F5E651460398FEF7FDFFBE4274
:1040840012D04746B84678E802239D4208BF9442BE
:10409400F1D351460131C9B2A41A65EB03059D421F
:1040A40008BF9442F6D2E7E719F400644DD10A9BA5
:1040B400002B65D119F0800F40F0AE8119F4806FA8
:1040C40033D009F40059B9F1000F14BF452165211B
:1040D400039C2046FEF7D0FF139B002BC0F2AD805B
:1040E4002B210398FEF7C8FF1399632900F3AD80D1
:1040F4001399224C84FB0132C917C1EBA201303160
:10410400C9B2039D2846FEF7B7FF139B84FB032423
:10411400D917C1EBA40101EB8101A3EB410303F126
:104124003001C9B22846FEF7A7FFBBF1000F3FF4E8
:1041340025A920245D46013D21460398FEF79CFFF6
:10414400002DF8D1AB46FFF719B9139B002BAEDD58
:104154003025013B139329460398FEF78DFF139BEB
:10416400002BF6DCA3E700BF9848000800002440B9
:10417400000059400000E03FA048000867666666FA
:104184002E210398FEF778FF0A9F102FA8BF10274F
:1041940027EAE7770A9BA3EB0708BCB1DDE90445EE
:1041A4001398381AFEF740FF02460B46204629466C
:1041B400FEF752F8FEF782FA04460D466FB307F194
:1041C4000057013FC14B03EBC70A10E0DDE904458A
:1041D4003846FEF729FF02460B4620462946FEF7DD
:1041E4003BF8FEF76BFA04460D46E7E7BA46574636
:1041F40077E802239D4208BF94421CD33021013149
:10420400C9B2A41A65EB03059D4208BF9442F6D2D5
:104214000398FEF731FF5645E8D1B8F1000F3FF49B
:104224004DAF30244546013D21460398FEF724FF57
:10423400002DF8D142E73021EAE72D212046FEF790
:104244001BFF139B5B4213934EE7A14C84FB01328B
:10425400C917C1EB62113031C9B20398FEF70CFFE4
:10426400139A84FB0234D317C3EB6413642101FB58
:10427400132313933CE74FF00108FFF779BBDDE903
:10428400040102460B46014308BF002510D00DA8C7
:10429400002502F00701303100F8011B0135D10877
:1042A40041EA4371DE080A46334652EA0301F0D17B
:1042B400A8EB050828EAE878079BA3EB080AAAEB11
:1042C400050AB9F1FF0F63D9AAF1020A14F4007FB9
:1042D40000F00B81C9F307210398FEF7CDFE5FFAC6
:1042E40089F10398FEF7C8FE5AE0DDE90423164677
:1042F4001F46134308BF0025DAD0002504F4004B01
:104304005B46A3461C462FE002F00F021EF8023063
:1043140006F8013B0135020942EA01720B09104615
:10432400194652EA030AC3D0002FEDD002F00F025F
:104334001CF80230ECE714AB03EB050A0A22002355
:1043440030463946FEF79BFF30320AF81C2C013503
:104354000A22002330463946FEF791FF002F08BF9A
:104364000A2E0FD306460F46002CE4D005F00303B3
:10437400032BE0D114AB2B444FF02C0203F81C2C7C
:104384000135D8E75C4693E7002591E700258FE7E0
:10439400B9F1000F40F0A48014F4007F00F0A58070
:1043A400039E324651462046FEF78EFE3246414673
:1043B4003020FEF77BFEB5F1010B11D40DAF5D4645
:1043C4003D4403E04FF0000A84E735462E4616F8D4
:1043D40001190398FEF750FEAF42F6D14FF0FF3BB0
:1043E40014F0100F3EF4CAAF039A51462020FEF792
:1043F4005DFEFEF7C3BF03998B682BB10A68496859
:104404008A423CBF00219954039B186815B0BDE84B
:10441400F08F4FF0FF30F9E72E210398FEF72CFEC2
:104424000A9FB7E60020FEF7FFFD0022294BFDF7A7
:1044340013FFDDE90423FDF7E9FD04460D46CDE94C
:1044440004450022244BFEF7C1F800283FF48BAC4E
:10445400139B0133139300221F4B20462946FDF77B
:1044640097FFCDE90401B8F1000F3FF47CAC06F4EA
:104474000863B3F5006F3FF45FAC26F4006908F1FC
:10448400050A079BA3EB0A0ACDF828800AF1FF3A34
:1044940016F4805F3FF40EAD139C104B83FB042392
:1044A400A3EBE47303EB4303E31A0233042B3FF659
:1044B400FFAC01A252F823F0793E0008973E0008B1
:1044C400F13D0008793E0008973E0008984800082E
:1044D4001F85EB510000E03F000024405655555520
:1044E4000AF1FF3A14F4007F0BD1039A5146204697
:1044F400FEF7EAFDB9F1FF0F98BF4FF0000A3FF64F
:1045040061AFB9F1000F3FF44BAFE8E638B50446AC
:104514000D46FEF727FF074B1D6044F08004064B51
:104524001C601A461368002BFCD1FEF71CFF014BDC
:0C453400186838BD500100204C01002028
:1045400048617264206661756C740A00433A5C5578
:10455000736572735C313830303739335C4465735E
:104560006B746F705C5345503235305F72656C65AB
:1045700061736556335C7365703230305F31396614
:104580005F72656C656173655C5465737462656EBA
:1045900063685C556E6974546573745C31352E4282
:1045A0006561636F6E5F4E4F535B756E69747465C2
:1045B00073745D5C5372635C4253505C4253502E83
:1045C000630000004572726F72212048616C742094
:1045D00061742025732025640D0A0000000000008E
:1045E00000000000010203040607080953797374F0
:1045F000656D20436C6F636B205370656564202587
:104600006420487A0D0A0000494E49542046414929
:104610004C45440D0A000000433A5C5573657273C3
:104620005C313830303739335C4465736B746F708C
:104630005C5345503235305F72656C656173655609
:10464000335C7365703230305F3139665F72656C30
:10465000656173655C5465737462656E63685C550F
:104660006E6974546573745C31352E426561636F95
:104670006E5F4E4F535B756E6974746573745D5CE9
:104680005372635C6D61696E2E6300005350492064
:1046900053706565643A2025640D0A004576656EA1
:1046A000742054696D656F75740D0A005478204547
:1046B00072726F722E204F6666205472780D0A0057
:1046C00007A9022570889B880000010203040005E9
:1046D0002D001A3152001A339A001A351D011A376B
:1046E0006B003B31BE003B335E013B3596023B37EE
:1046F00087008D00401008000704000908054008E5
:1047000009104008080540081D0400081D040008A1
:104710001E265626BEBE0000000098599859EA5140
:104720008E421E45142E0080EA51F4283233E03ABE
:10473000703DE03AC235842BC2353233C235C235C2
:10474000AE47E03A5038A23050380000D8BC0000E4
:104750000A0016000100060001000200405C000093
:10476000A05C0400C06C0800805C0400E03F1E00F8
:10477000E07D1E00433A5C55736572735C313830DE
:10478000303739335C4465736B746F705C534550DC
:104790003235305F72656C6561736556335C736585
:1047A000703230305F3139665F72656C6561736598
:1047B0005C5465737462656E63685C556E697454AD
:1047C0006573745C31352E426561636F6E5F4E4F69
:1047D000535B756E6974746573745D5C5372635C6E
:1047E0004253505C436C6F636B5C436C6F636B2E26
:1047F0006300000030313233343536373839616286
:104800006364656630313233343536373839414286
:104810004344454621000000220000000000000043
:10482000000000000000244000000000000059408B
:10483000000000000088C3400000000084D79741BA
:104840000080E03779C34143176E05B5B5B893468C
:10485000F5F93FE9034F384D321D30F94877825A58
:104860003CBF737FDD4F15752D494E46000000009B
:104870002D696E66000000002B494E4600000000C6
:104880002B696E66000000004E414E006E616E00A6
:10489000286E756C6C29000001000000000000000B
:1048A0000A0000000000000064000000000000009A
:1048B000E8030000000000001027000000000000D6
:1048C000A08601000000000040420F000000000030
:1048D000809698000000000000E1F505000000004F
:1048E00000CA9A3B0000000000E40B5402000000E4
:1048F00000E87648170000000010A5D4E80000008A
:1049000000A0724E1809000000407A10F35A00000F
:104910000080C6A47E8D03000000C16FF2862300D4
:1049200000008A5D78456301000064A7B3B6E00D1E
:084930000000E8890423C78A96
:0F49380000A24A040302140009090002008100D2
:0400000508000131BD
:00000001FF
